S01C00004C504C445F446D6150646241444378345F4B36302E73726563D1
S3151FFF0000C02EFF1F1104FF1F2104FF1F6B1AFF1FA7
S3151FFF00102104FF1F2104FF1F2104FF1F00000000F3
S3151FFF00200000000000000000000000002104FF1F69
S3151FFF00302104FF1F000000002104FF1F2104FF1FD3
S3151FFF0040891DFF1F9F1DFF1FB51DFF1FCB1DFF1FF8
S3151FFF0050E11DFF1FF71DFF1F0D1EFF1F231EFF1F86
S3151FFF0060391EFF1F4F1EFF1F651EFF1F7B1EFF1F14
S3151FFF0070911EFF1FA71EFF1FBD1EFF1FD31EFF1FA4
S3151FFF00802104FF1F2104FF1F2104FF1F2104FF1F40
S3151FFF00902104FF1F2104FF1F2104FF1F2104FF1F30
S3151FFF00A0DD20FF1F3721FF1F2915FF1FD315FF1F39
S3151FFF00B07D16FF1F9318FF1F9B18FF1FA318FF1FF8
S3151FFF00C0B118FF1FBB18FF1FC518FF1FC718FF1F3C
S3151FFF00D0C918FF1FCB18FF1FD318FF1FDB18FF1FE2
S3151FFF00E0E918FF1FF318FF1F1D19FF1F1F19FF1FFA
S3151FFF00F02119FF1F4507FF1F2104FF1F7507FF1F3D
S3151FFF01002104FF1FA507FF1F2104FF1FD507FF1F81
S3151FFF01102104FF1F0508FF1F2104FF1F3508FF1FAF
S3151FFF01202104FF1F0D27FF1F1727FF1F2104FF1F77
S3151FFF01302104FF1F2104FF1F3D26FF1F4726FF1F09
S3151FFF01405126FF1F2104FF1F8523FF1F00000000ED
S3151FFF01501923FF1F2F23FF1F4523FF1F5B23FF1F8F
S3151FFF01602922FF1F6127FF1F2104FF1FF521FF1FE5
S3151FFF0170CF21FF1FA921FF1F0B22FF1F2104FF1FD7
S3151FFF01802104FF1FE91FFF1F5320FF1FA922FF1F68
S3151FFF01902104FF1F9126FF1F2104FF1F4712FF1F69
S3151FFF01A05912FF1F6B12FF1F7D12FF1F8F12FF1F9B
S3151FFF01B02104FF1F2104FF1F2104FF1F2104FF1F0F
S3151FFF01C02104FF1F2104FF1F2104FF1F2104FF1FFF
S3151FFF01D02104FF1F2104FF1F2104FF1F2104FF1FEF
S3151FFF01E0751AFF1F751AFF1F751AFF1F751AFF1F37
S3151FFF041001488047014800474519FF1F6D1FFF1FF2
S3151FFF042001F028BB0FB4F0B50598069B9DF81C700D
S3151FFF04309DF81D500899099A002B01D14FF41653A9
S3151FFF0440DFF82044A0423FD10024DFF81C64366842
S3151FFF0450DFF818C4DCF800C05CF4806CDFF80CE42E
S3151FFF0460CEF800C0FFB2022F06D1DFF804744FF497
S3151FFF0470007CC7F800C00FE0FFB20E2F06D1DFF8D2
S3151FFF0480F4734FF4407CC7F800C005E0DFF8E8734C
S3151FFF04904FF4407CC7F800C0EDB2012D05D1DFF840
S3151FFF04A0DC534FF400772F60F4E0EDB20F2D05D12B
S3151FFF04B0DFF8CC534FF440772F60EBE0DFF8C453E0
S3151FFF04C04FF440772F60E5E0DFF8BC43A0422CD105
S3151FFF04D00124DFF894633668DFF890C3DCF800C0A9
S3151FFF04E05CF4006CDFF884E3CEF800C0FFB2802F08
S3151FFF04F006D1DFF898734FF4407CC7F800C005E0BC
S3151FFF0500DFF88C734FF4407CC7F800C0EDB2812D26
S3151FFF051005D1DFF880534FF440772F60BAE0DFF83D
S3151FFF052078534FF440772F60B4E0DFF870432668A7
S3151FFF0530DFF86C43A04213D10224DFF830532D6836
S3151FFF054055F48055DFF824733D60DFF858534FF499
S3151FFF055040772F60DFF850534FF440772F6099E0B5
S3151FFF0560DFF84843A0423CD10324DFF800C3DCF881
S3151FFF057000C05CF4005CDFF8F4E2CEF800C0FFB207
S3151FFF0580842F06D1DFF828734FF4407CC7F800C0CD
S3151FFF05900FE0FFB22B2F06D1DFF818734FF4407C05
S3151FFF05A0C7F800C005E0DFF810734FF4407CC7F8AB
S3151FFF05B000C0EDB2852D05D1DFF800534FF440770C
S3151FFF05C02F6067E0EDB22A2D05D1DFF8F4524FF405
S3151FFF05D040772F605EE0DFF8EC524FF440772F60D5
S3151FFF05E058E0DFF8E442A04229D10424DFF8DCC239
S3151FFF05F0DCF800C05CF4806CDFF8D0E2CEF800C0F8
S3151FFF0600FFB2982F06D1DFF8C8724FF4407CC7F8A8
S3151FFF061000C005E0DFF8BC724FF4407CC7F800C08E
S3151FFF0620EDB2992D05D1DFF8B0524FF440772F6009
S3151FFF063030E0DFF8A8524FF440772F602AE00524F9
S3151FFF0640DFF89C02DFF884C2DCF800C05CF4006CA4
S3151FFF0650DFF878E2CEF800C0FFB2692F06D1DFF8C8
S3151FFF066084724FF4407CC7F800C005E0DFF878724C
S3151FFF06704FF4407CC7F800C0EDB2682D05D1DFF8F7
S3151FFF06806C524FF440772F6004E0DFF864524FF44B
S3151FFF069040772F60C57815F0F305C5700025857067
S3151FFF06A01D01B6FBF5F5077817F0E007ADB25FEA58
S3151FFF06B0152C1CF01F0C5CEA0707077045707601A7
S3151FFF06C01B01B6FBF3F3ADB2B3EB4513857A15F0FA
S3151FFF06D0E00713F01F033B4383729DF81E30012B68
S3151FFF06E00CD10B00002B09D0C37853F02003C37026
S3151FFF06F0E4B2DFF8003243F8241003E0C17811F0AB
S3151FFF0700DF01C1709DF81F1001290BD111000029B0
S3151FFF071008D0C17851F08001C170E4B2764941F823
S3151FFF0720242003E0C17811F07F01C170C17851F019
S3151FFF07300C01C170F0BC5DF814FB02791206FCD5E3
S3151FFF0740C171704780B56D480078800606D56C4825
S3151FFF07500078800602D5674800688047674800789B
S3151FFF0760000606D566480078000602D5624800686F
S3151FFF0770804701BD80B563480078800606D562486D
S3151FFF07800078800602D55B48406880475D48007841
S3151FFF0790000606D55C480078000602D55648406815
S3151FFF07A0804701BD80B559480078800606D5584851
S3151FFF07B00078800602D54F488068804753480078E7
S3151FFF07C0000606D552480078000602D54A488068BB
S3151FFF07D0804701BD80B54F480078800606D54E4835
S3151FFF07E00078800602D54348C0688047494800788D
S3151FFF07F0000606D548480078000602D53E48C06861
S3151FFF0800804701BD80B545480078800606D5444818
S3151FFF08100078800602D53748006980473F48007831
S3151FFF0820000606D53E480078000602D53248006905
S3151FFF0830804701BD80B53B480078800606D53A48FC
S3151FFF08400078800602D52B484069804735480078D7
S3151FFF0850000606D534480078000602D526484069AB
S3151FFF0860804701BD00A00640D027FF1F34800440EC
S3151FFF0870089004403890044044A00440049004406C
S3151FFF08803C90044040A0044000B0064000D0044006
S3151FFF089010B0044004D004400CB00440D427FF1FFF
S3151FFF08A000C006400CC0044008C0044000D00640EC
S3151FFF08B010D004402CA0044044B0044014D0044080
S3151FFF08C028A0044040B0044000A00E4028800440EA
S3151FFF08D060D004403CB0044064D0044038B00440AC
S3151FFF08E000B00E4024C0044020D0044020C0044066
S3151FFF08F024D00440742AFF1F8C2AFF1F04A0064022
S3151FFF090003A0064004B0064003B0064004C00640DD
S3151FFF091003C0064004D0064003D0064004A00E4085
S3151FFF092003A00E4004B00E4003B00E4010B50C00DE
S3151FFF09301168012902D0022904D009E040B251688B
S3151FFF0940884705E0916808709068401C9060FFE734
S3151FFF09502068401C206010BD30B41C0000230025FA
S3151FFF09600570401C002A19D0096800290AD13021B9
S3151FFF097001705B1C180030BC7047303511000570C5
S3151FFF0980401C5B1C0029F5D091FBF4F204FB1215EA
S3151FFF0990002DF2D5E94311F13105EFE7096800296B
S3151FFF09A008D1302101705B1CE4E737351100057054
S3151FFF09B0401C5B1C0029DDD0B1FBF4F204FB1215B2
S3151FFF09C00A2DF2D23035F1E7F8B504000D001600F7
S3151FFF09D01F0005E03A0031003020FFF7A7FF641C18
S3151FFF09E0AC42F7DBF1BDF8B504000D0016001F0082
S3151FFF09F005E03A0031002020FFF798FF641CAC4248
S3151FFF0A00F7DBF1BD2DE9F04F8DB005001600002075
S3151FFF0A1000900C0005E02A0000A91800FFF786FFCB
S3151FFF0A20641C94F90030002B00F0C881252B12D0CF
S3151FFF0A300A2B05D02A0000A91800FFF777FF09E048
S3151FFF0A402A0000A90D20FFF771FF2A0000A90A201F
S3151FFF0A50FFF76CFFE4E70027002101E057F00107CE
S3151FFF0A6000291CD1641C94F9000020280BD02328D1
S3151FFF0A700FD02B2804D02D28F0D0302806D00BE01E
S3151FFF0A8057F00207ECE757F00407E9E757F00807A7
S3151FFF0A90E6E757F01007E3E7641E0121E0E75FF083
S3151FFF0AA00008002104E00A2000FB0830B0F13008DF
S3151FFF0AB0002909D1641C94F9003018003038092821
S3151FFF0AC0F1D9641E0121F3E7641C94F900002E2857
S3151FFF0AD00CD10021FFE7002909D1641C94F90000FE
S3151FFF0AE030380928F7D9641E0121F4E7641E641CF8
S3151FFF0AF094F900004C2806D0682802D06C2801D034
S3151FFF0B0002E002E001E000E0641E641C94F900307D
S3151FFF0B101800582874D0622800F0D080632800F090
S3151FFF0B201881642813D0692811D06E2800F04181DF
S3151FFF0B306F2800F0B880702800F0CB80732800F074
S3151FFF0B401081752800F0D080782859D063E7306868
S3151FFF0B500390361D0A23012203A904A8FFF7FCFEF3
S3151FFF0B60824604A81AEB00090398002804D52D20F6
S3151FFF0B7002901AF1010A0FE0B80704D52B20029045
S3151FFF0B801AF1010A08E0780704D5202002901AF10E
S3151FFF0B90010A01E0002002905FF0000B380711D514
S3151FFF0BA00298002804D02A0000A90298FFF7BEFE6C
S3151FFF0BB05FF0010B2B0000AA41465046FFF704FFCB
S3151FFF0BC0C24611E0F8070FD42B0000AA4146504634
S3151FFF0BD0FFF709FF0298002804D02A0000A90298F0
S3151FFF0BE0FFF7A4FE5FF0010BBBF1000F07D10298C1
S3151FFF0BF0002804D02A0000A90298FFF797FE9BE062
S3151FFF0C0030680190361D1023002201A904A8FFF7A3
S3151FFF0C10A3FE824604A81AEB00095FF0000B3807F4
S3151FFF0C2015D5F8060BD52A0000A93020FFF77EFE43
S3151FFF0C302A0000A97820FFF779FE5FF0010B2B0032
S3151FFF0C4000AA41465046FFF7BFFEC24619E0F80706
S3151FFF0C5017D4F80601D51AF1020A2B0000AA41463E
S3151FFF0C605046FFF7C0FEF8060BD52A0000A9302015
S3151FFF0C70FFF75CFE2A0000A97820FFF757FE5FF0FB
S3151FFF0C80010BF8060ED5BBF1000F0BD12A0000A9E9
S3151FFF0C903020FFF74BFE2A0000A97820FFF746FEFC
S3151FFF0CA01AF1020A48E030680190361D0823002218
S3151FFF0CB001A904A8FFF750FE82461FE03068019086
S3151FFF0CC0361D0223002201A904A8FFF745FE82460F
S3151FFF0CD014E030680190361D1023002201A904A8D5
S3151FFF0CE0FFF73AFE824609E030680190361D0A2358
S3151FFF0CF0002201A904A8FFF72FFE824604A81AEBBC
S3151FFF0D000009380707D52B0000AA41465046FFF7B3
S3151FFF0D105BFEC24610E0F8070ED42B0000AA414621
S3151FFF0D205046FFF760FE07E02A0000A999F9000069
S3151FFF0D30FFF7FCFDB9F1010999F900000028F3D16E
S3151FFF0D40F80705D52B0000AA41465046FFF74BFE75
S3151FFF0D5066E696F90000361D2A0000A9FFF7E6FD95
S3151FFF0D605EE6D6F80090361DB9F1000F20D0484633
S3151FFF0D7000F03AF88246F8070ED42B0000AA414628
S3151FFF0D805046FFF730FE07E02A0000A999F9000039
S3151FFF0D90FFF7CCFD19F1010999F900000028F3D1DE
S3151FFF0DA0F80705D52B0000AA41465046FFF71BFE45
S3151FFF0DB036E63068361D0099016031E600980DB0A2
S3151FFF0DC0BDE8F08F0EB400B584B00121009105492F
S3151FFF0DD0019105AA010000A8FFF714FE04B05DF8F4
S3151FFF0DE010FB00003927FF1F0021002802D100201A
S3151FFF0DF007E0491C0200501C92F90020002AF8D177
S3151FFF0E00080070470821DFF804230123136000BF82
S3151FFF0E10DFF8FC220023136000BF0DE0DFF8F4228A
S3151FFF0E2000231360DFF8E8220123136000BFDFF8FA
S3151FFF0E30E0220023136040000A00511ED2B2002A8F
S3151FFF0E4006D00206EAD5DFF8CC2201231360E9E7B5
S3151FFF0E50704700000821DFF8B42200231360DFF874
S3151FFF0E60B022002313600DE0DFF8A82200231360D2
S3151FFF0E70DFF89C220123136000BFDFF894220023B3
S3151FFF0E80136040000A00511ED2B2002A06D0020686
S3151FFF0E90EAD5DFF8802201231360E9E7704710B513
S3151FFF0EA00400B1F15000C0B2FFF7D4FFE4B220092E
S3151FFF0EB050F01000C0B2FFF7CDFF14F00F0050F037
S3151FFF0EC00100C0B2FFF7C6FF10BD70B504000025B5
S3151FFF0ED008E02000C0B2FFF795FF761CF6B2802E02
S3151FFF0EE0F7DB6D1CEDB2082D0CDAB5F15000C0B261
S3151FFF0EF0FFF7B0FF0120FFF7ADFF1020FFF7AAFF97
S3151FFF0F000026EBE770BD38B5002407E00020FFF78A
S3151FFF0F1079FF6D1CEDB2802DF8DB641CE4B2082C43
S3151FFF0F200CDAB4F15000C0B2FFF794FF0120FFF7B0
S3151FFF0F3091FF1020FFF78EFF0025EBE731BD07E07E
S3151FFF0F4043F226410A00511E92B2002AFAD1401ED1
S3151FFF0F5080B20028F4D1704780B50121522000F0DE
S3151FFF0F6051F90121512000F04DF90121502000F0C8
S3151FFF0F7049F901219A2000F045F9DFF89401012173
S3151FFF0F800160DFF88C0100210160DFF88801012174
S3151FFF0F900160DFF8800100210160DFF87001012188
S3151FFF0FA00160DFF8680100210160DFF86C01012194
S3151FFF0FB00160DFF8640100210160DFF854010121A0
S3151FFF0FC00160DFF85401002101600A20FFF7B7FF18
S3151FFF0FD0DFF8440101210160AE20FFF73BFF002030
S3151FFF0FE0FFF738FF1020FFF735FF4020FFF732FFCF
S3151FFF0FF08120FFF72FFFCF20FFF72CFFA020FFF742
S3151FFF100029FFC020FFF726FFA620FFF723FFA820F3
S3151FFF1010FFF720FF3F20FFF71DFFD320FFF71AFF24
S3151FFF10200020FFF717FFD520FFF714FF8020FFF7DC
S3151FFF103011FFD920FFF70EFFF120FFF70BFFDA2075
S3151FFF1040FFF708FF1220FFF705FFDB20FFF702FF61
S3151FFF10504020FFF7FFFE2020FFF7FCFE0220FFF7D1
S3151FFF1060F9FE8D20FFF7F6FE1420FFF7F3FEA420EF
S3151FFF1070FFF7F0FEA620FFF7EDFEAF20FFF7EAFE14
S3151FFF10800020FFF722FF00210020FFF708FF01BD09
S3151FFF10902DE9F84304000D00160000275FF0000836
S3151FFF10A05FF0000915E05FFA88F8FFB20620DFF848
S3151FFF10B06C1000FB071018F80000FFF7A3FE18F1CE
S3151FFF10C001085FFA88F8B8F1060FECDBA41D19F1CA
S3151FFF10D001095FFA89F919F80600002813D05FFA8C
S3151FFF10E089F919F80600B0F12007E4B27F2C01DB5E
S3151FFF10F000246D1C2900C9B22000C0B2FFF7CFFE26
S3151FFF11005FF00008DDE7BDE8F18300006820FE43BE
S3151FFF11104810FE434410FE434010FE430013FF1FBB
S3151FFF11200FB42DE9F8430A9850F48074089F099D60
S3151FFF11309DF82C809DF82D900C9E5A48874203D30D
S3151FFF11403521594800F0D2F85FFA88F8B8F1020F37
S3151FFF115003DB3621544800F0C9F85FFA89F9B9F164
S3151FFF1160020F03DB3721504800F0C0F84F48874274
S3151FFF117010D14F4900205FFA88F8B8F1010F25D12A
S3151FFF11807A692A437A615FFA89F9B9F1010F1BD18F
S3151FFF11907D601EE04748874202D147490120EAE7A3
S3151FFF11A04648874202D146490220E4E7454887421F
S3151FFF11B002D145490320DEE74448874202D144490D
S3151FFF11C00420D8E7002019E0BD6002E07A69AA4330
S3151FFF11D07A61002207E035FA02F3DB0702D5D2B2A6
S3151FFF11E041F82240521CD2B2202AF4DB31000029DB
S3151FFF11F003D0C0B2374941F820600120BDE8F20392
S3151FFF12005DF814FB10B4C0B2420910F01F00D2B232
S3151FFF1210930103F1804313F57F23D2B2120302F129
S3151FFF1220804212F592221433C0B2840014EB43138B
S3151FFF123013F18443C9B21960C0B24FF4807142F8EB
S3151FFF1240201010BC704780B522480068804722488F
S3151FFF12505FF0FF31016001BD80B51E4840688047C2
S3151FFF12601E485FF0FF31016001BD80B519488068D8
S3151FFF127080471B485FF0FF31016001BD80B51548F0
S3151FFF1280C068804717485FF0FF31016001BD80B519
S3151FFF129010480069804714485FF0FF31016001BDA8
S3151FFF12A00000000001F10F400025FF1F00F00F4057
S3151FFF12B00090044040F00F4000A0044080F00F4014
S3151FFF12C000B00440C0F00F4000C0044000F10F40C3
S3151FFF12D000D00440E029FF1FA0900440A0A00440B7
S3151FFF12E0A0B00440A0C00440A0D0044080B50A00AF
S3151FFF12F001000248FFF766FDFEE700BF3C25FF1F03
S3151FFF13000000000000000000002F00000000070083
S3151FFF1310070000147F147F1400242A7F2A120062FD
S3151FFF132064081323003649552250000005030000A9
S3151FFF133000001C224100000041221C000014083E31
S3151FFF134008140008083E0808000000A060000008F7
S3151FFF1350080808080000606000000020100804024B
S3151FFF1360003E5149453E0000427F40000042615109
S3151FFF13704946002141454B31001814127F100027A3
S3151FFF138045454539003C4A49493000017109050366
S3151FFF139000364949493600064949291E0000363697
S3151FFF13A000000000563600000008142241000014FA
S3151FFF13B014141414000041221408000201510906D7
S3151FFF13C000324959513E007C1211127C007F494958
S3151FFF13D04936003E41414122007F4141221C007F89
S3151FFF13E049494941007F09090901003E4149497A97
S3151FFF13F0007F0808087F0000417F41000020404111
S3151FFF14003F01007F08142241007F40404040007F7C
S3151FFF1410020C027F007F0408107F003E4141413EC0
S3151FFF1420007F09090906003E4151215E007F091908
S3151FFF143029460046494949310001017F0101003F05
S3151FFF14404040403F001F2040201F003F4038403F85
S3151FFF145000631408146300070870080700615149E9
S3151FFF1460454300007F41410000552A552A5500007C
S3151FFF147041417F00000402010204004040404040FA
S3151FFF1480000001020400002054545478007F484492
S3151FFF1490443800384444442000384444487F0038C9
S3151FFF14A05454541800087E0901020018A4A4A47CF2
S3151FFF14B0007F080404780000447D400000408084BC
S3151FFF14C07D00007F102844000000417F4000007C04
S3151FFF14D004180478007C0804047800384444443810
S3151FFF14E000FC242424180018242418FC007C08045C
S3151FFF14F0040800485454542000043F444020003C35
S3151FFF15004040207C001C2040201C003C4030403CBB
S3151FFF1510004428102844001CA0A0A07C004464544B
S3151FFF15204C4414141414141480B582480068002800
S3151FFF153009D57D48006880477E48006850F0004007
S3151FFF15407C49086044E07B480068C00009D576489F
S3151FFF1550406880477748006850F08050754908609B
S3151FFF156036E074480068000109D56F4880688047D8
S3151FFF15707048006850F000606E49086028E06D48AB
S3151FFF15800068800109D56848006980476948006877
S3151FFF159050F00070674908601AE06648006800034C
S3151FFF15A009D56148C06880476248006850F400202B
S3151FFF15B0604908600CE05F480068800308D55A48F9
S3151FFF15C0406980475B48006850F4003059490860FE
S3151FFF15D001BD80B558480068002809D553480068E3
S3151FFF15E080475548006850F000405349086044E063
S3151FFF15F051480068C00009D54C48406880474E488F
S3151FFF1600006850F080504C49086036E04A48006831
S3151FFF1610000109D54548806880474748006850F054
S3151FFF162000604549086028E043480068800109D5E6
S3151FFF16303E48006980474048006850F000703E49A9
S3151FFF164008601AE03C480068000309D53748C068A0
S3151FFF165080473948006850F40020374908600CE07E
S3151FFF166035480068800308D53048406980473248AF
S3151FFF1670006850F400303049086001BD80B52F481F
S3151FFF16800068002809D52A48006880472B4800684C
S3151FFF169050F000402949086044E028480068C00010
S3151FFF16A009D52348406880472448006850F080507A
S3151FFF16B02249086036E021480068000109D51C4809
S3151FFF16C0806880471D48006850F000601B4908600E
S3151FFF16D028E01A480068800109D515480069804728
S3151FFF16E01648006850F00070144908601AE0134846
S3151FFF16F00068000309D50E48C06880470F48006879
S3151FFF170050F400200D4908600CE00C480068800368
S3151FFF171008D50748406980470848006850F40030DD
S3151FFF17200649086001BD0000242AFF1F3C2AFF1F30
S3151FFF1730542AFF1F2CC002402CD002402CC00A4047
S3151FFF1740C9B2202906DA026B012313FA01F11143ED
S3151FFF1750016306E0C26A0123203913FA01F111431F
S3151FFF1760C1627047C9B2202904DA006BC84010F066
S3151FFF1770010004E0C06A2039C84010F00100C0B262
S3151FFF1780704738B505000C002100C9B22800FFF7C6
S3151FFF1790E9FF002821D02100C9B22800FFF7D0FF9B
S3151FFF17A0574885420BD1E4B2574850F8240000280A
S3151FFF17B013D0E4B2544850F8240080470DE0514837
S3151FFF17C085420AD1E4B2514850F82400002804D0BC
S3151FFF17D0E4B24E4850F82400804731BD38B50400A7
S3151FFF17E00D002900C9B22000FFF7BCFF012812D147
S3151FFF17F04348844210D1EDB2434850F825000028D4
S3151FFF180004D0EDB2404850F8250080472900C9B2E1
S3151FFF18102000FFF795FF31BD3A4884420BD1EDB249
S3151FFF18203A4850F825000028F0D0EDB2374850F857
S3151FFF183025008047EAE7EEE710B500240FE0E4B284
S3151FFF1840334810EB0410007A012807D12100C9B2D3
S3151FFF1850E4B220012E4A8058FFF7C0FF641CE4B292
S3151FFF1860102C15DAE4B22001294940580028F5D07B
S3151FFF1870E4B2274810EB0410007A0228DFD12100BB
S3151FFF1880C9B2E4B22001224A8058FFF77AFFE5E783
S3151FFF189010BD80B5FFF7D0FF01BD1E4804210160B3
S3151FFF18A070471C480068810701D51A4908607047B1
S3151FFF18B018485FF400310160704716485FF48031A6
S3151FFF18C00160704770477047704780B5FFF7B4FFD9
S3151FFF18D001BD11480421016070470F480068810749
S3151FFF18E001D50D49086070470B485FF40031016051
S3151FFF18F0704709485FF480310160704700000000A0
S3151FFF19000040024000400A40EC28FF1F2C29FF1F02
S3151FFF1910EC27FF1F2040024020400A4070477047B8
S3151FFF1920704750F8041B61B150F8042BD30744BF0F
S3151FFF1930A9F101039A18002342F8043B091FFAD1A4
S3151FFF1940EFE7704700B587B05048006850F47850EE
S3151FFF19504E4908604E484CF2205101804C484DF6C7
S3151FFF1960281101804B484FF4E971018000F0BEF842
S3151FFF1970642000F00BF900F065F8474847490968EE
S3151FFF198001604548006846490968C1F30361491C60
S3151FFF1990B0FBF1F0434908603F48006840490968BA
S3151FFF19A0C1F30351491CB0FBF1F03F4908603A48A8
S3151FFF19B000683B490968C1F30341491CB0FBF1F0BD
S3151FFF19C03A4908603A4801905FF4E13002903020AF
S3151FFF19D08DF80D0031208DF80C0001A984B06846E3
S3151FFF19E0142200F0A5F90FBCFEF71CFD26A0FFF77A
S3151FFF19F0E9F93048FFF7E6F92F493048FFF7E2F9D3
S3151FFF1A00284800682E49B0FBF1F2234800682C498D
S3151FFF1A10B0FBF1F12B48FFF7D5F924480068284999
S3151FFF1A20B0FBF1F2204800682549B0FBF1F12648CB
S3151FFF1A30FFF7C8F92548FFF7C5F92548FFF7C2F98C
S3151FFF1A4007B000BD23480078C0B210F01F00183042
S3151FFF1A502149484321490978C9B211F01F01491C81
S3151FFF1A60B0FBF1F00D490860704780B51C48FFF7C2
S3151FFF1A70A9F901BD80B51B480078C0B2B0F11001AE
S3151FFF1A801948FFF79FF901BD0D0A00003880044072
S3151FFF1A900E20054000200540D027FF1FE027FF1F10
S3151FFF1AA044800440D427FF1FDC27FF1FD827FF1FB3
S3151FFF1AB000B00E407824FF1F7C27FF1F6C25FF1FDA
S3151FFF1AC040420F00F425FF1F1826FF1FBC24FF1FD0
S3151FFF1AD03024FF1F0540064080F0FA0204400640EF
S3151FFF1AE07026FF1F04ED00E09C25FF1F1C481D49A4
S3151FFF1AF088420BD0002006E019491A4A52F82020C7
S3151FFF1B0041F82020401CB0F5826FF5D316481449C3
S3151FFF1B1001601649164A1748801A03E013780B709F
S3151FFF1B20521C491C0300581E002BF7D1124913489C
S3151FFF1B30401A02E000220A70491C0200501E002AAA
S3151FFF1B40F8D10F490F4A1048801A03E013780B701C
S3151FFF1B50521C491C0300581E002BF7D1704700BFAC
S3151FFF1B600000FF1F0000FF1F08ED00E0D027FF1F2B
S3151FFF1B704C27FF1F6027FF1FE427FF1FBC2AFF1FDE
S3151FFF1B808427FF1FE423FF1F3024FF1FF8B5C0B2B2
S3151FFF1B90C92801D3C820FFE7C0B2010030290ED0E4
S3151FFF1BA032291BD060291CD064291DD078291ED04D
S3151FFF1BB096291FD0B42920D0C82921D023E0182762
S3151FFF1BC0002506000024C0B23221B0FBF1F1491EE9
S3151FFF1BD00A00D2B2FF2A1AD1002120E018270125B9
S3151FFF1BE0EFE718271825ECE718271A25E9E7132724
S3151FFF1BF01825E6E70F271825E3E70E271E25E0E73B
S3151FFF1C000C271C25DDE76020FFF7C0FF80E0C0B271
S3151FFF1C10C9B24A1C90FBF2F2332A00D3491CC0B249
S3151FFF1C203222B0FBF2F2521E1300DBB2FF2B01D1A1
S3151FFF1C30002207E0C0B2D2B2531C90FBF3F3332B43
S3151FFF1C4000D3521CC0B21923B0FBF3F35B1E9C4695
S3151FFF1C505FFA8CFCBCF1FF0F01D1002308E0C0B275
S3151FFF1C60DBB213F1010C90FBFCF01A2800D35B1CAF
S3151FFF1C7028485FF0000C80F800C02748006850F026
S3151FFF1C808050DFF894C0CCF800002448007850F04D
S3151FFF1C908000DFF888C08CF8000021485FF0980CA1
S3151FFF1CA080F800C01F480078C006FBD41D48007887
S3151FFF1CB0C0F38100C0B20228F8D117F01F001A4FD8
S3151FFF1CC038701A4800270770DBB2D2B2C9B2E4B226
S3151FFF1CD0200000F057FD15F01F0050F0400013497C
S3151FFF1CE00870104800788006FBD50E48007840061E
S3151FFF1CF0FBD50B48007810F03F00094908700948CB
S3151FFF1D000078C0F38100C0B20328F8D13000C0B2FB
S3151FFF1D10F2BD00BF014006403480044008C00740A3
S3151FFF1D200040064006400640044006400540064068
S3151FFF1D30103A07D330B4B1E83810103AA0E838107C
S3151FFF1D40F9D230BC530724BFB1E80810A0E808102A
S3151FFF1D5044BF51F8043B40F8043BD20724BF31F878
S3151FFF1D60022B20F8022B44BF0B7803707047083AEB
S3151FFF1D7007D3B1E80810083A40F8043B40F804CBF4
S3151FFF1D80F7D25307E4E7000080B55748006880473E
S3151FFF1D905648006850F001005449086001BD80B5E0
S3151FFF1DA05148406880475148006850F002004F492C
S3151FFF1DB0086001BD80B54C48806880474B48006866
S3151FFF1DC050F004004949086001BD80B54648C06808
S3151FFF1DD080474648006850F008004449086001BD27
S3151FFF1DE080B54148006980474048006850F01000A1
S3151FFF1DF03E49086001BD80B53B48406980473B4867
S3151FFF1E00006850F020003949086001BD80B536488B
S3151FFF1E10806980473548006850F0400033490860A5
S3151FFF1E2001BD80B53048C06980473048006850F013
S3151FFF1E3080002E49086001BD80B52B48006A804788
S3151FFF1E402A48006850F480702849086001BD80B594
S3151FFF1E502548406A80472548006850F4007023498B
S3151FFF1E60086001BD80B52048806A80471F4800680B
S3151FFF1E7050F001001D49086001BD80B51A48C06AB0
S3151FFF1E8080471A48006850F400601849086001BD72
S3151FFF1E9080B51548006B80471448006850F4805082
S3151FFF1EA01249086001BD80B50F48406B80470F4838
S3151FFF1EB0006850F400500D49086001BD80B50A48FF
S3151FFF1EC0806B80470948006850F4804007490860C7
S3151FFF1ED001BD80B50448C06B80470448006850F4B5
S3151FFF1EE000400249086001BD8429FF1F248000406E
S3151FFF1EF080B537483749016035485FF4E0214160B7
S3151FFF1F00334800214173324800218160304984B034
S3151FFF1F1068461422FFF70CFF0FBCFFF701F92C4889
S3151FFF1F202D4901602A485FF08061416028480021E2
S3151FFF1F300173274800218160254984B06846142212
S3151FFF1F40FFF7F6FE0FBCFFF7EBF801BD012800DA1E
S3151FFF1F500120002105E0521C43F2B0639A42FADBCF
S3151FFF1F60491C814201DA0022F6E7704780B5FFF769
S3151FFF1F70BFFFFEF7F1FF16481849016014484FF4DB
S3151FFF1F800041416012480121017311480021816000
S3151FFF1F900F4984B068461422FFF7CAFE0FBCFFF72E
S3151FFF1FA0BFF80F4A03210020FFF772F80C4A0421DE
S3151FFF1FB00020FFF76DF80B4A00210020FFF768F896
S3151FFF1FC04FF4FA60FFF7C2FFFEF79DFFFEE7000023
S3151FFF1FD0A82AFF1F80F00F4000F10F4000F00F40AF
S3151FFF1FE0F426FF1F2427FF1F80B538480078C00738
S3151FFF1FF00CD537480078C00708D531480068804799
S3151FFF20003248007810F0FE00304908702F480078DC
S3151FFF201080070CD52E480078800708D52948006809
S3151FFF202080472A48007810F0FD0028490870274886
S3151FFF2030007840070CD526480078400708D5224868
S3151FFF2040006880472148007810F0FB001F49087081
S3151FFF205001BD80B51F480078C0070CD51E48007804
S3151FFF2060C00708D51648406880471A48007810F001
S3151FFF2070FE00184908701748007880070CD51648C8
S3151FFF20800078800708D50F484068804711480078B9
S3151FFF209010F0FD000F4908700E48007840070CD559
S3151FFF20A00D480078400708D507484068804709480C
S3151FFF20B0007810F0FB000749087001BD0000000003
S3151FFF20C06C29FF1F7429FF1F7C29FF1F20C00C408F
S3151FFF20D021C00C4020D00C4021D00C4080B52E488B
S3151FFF20E00078800726D52B48006880472B48007845
S3151FFF20F0000705D52948007850F0080027490870C2
S3151FFF210026480078800705D52448007850F002003E
S3151FFF21102249087020480078C00605D51E4800785A
S3151FFF212050F010001C4908701B48007850F0020041
S3151FFF21301949087001BD80B519480078800726D553
S3151FFF214014484068804717480078000705D515488B
S3151FFF2150007850F00800134908701248007880076E
S3151FFF216005D51048007850F002000E4908700C483C
S3151FFF21700078C00605D50A48007850F010000849B8
S3151FFF218008700748007850F002000549087001BD26
S3151FFF219000000000F429FF1F036006400860064089
S3151FFF21A0037006400870064080B5DFF878000068A8
S3151FFF21B050F00070DFF86C100860DFF864000068ED
S3151FFF21C0002803D0DFF858000068804701BD80B59F
S3151FFF21D0DFF85000006850F00060DFF84810086015
S3151FFF21E0DFF83C004068002803D0DFF83400406862
S3151FFF21F0804701BD80B5DFF828008068002803D01F
S3151FFF2200DFF81C008068804701BD80B5DFF810002E
S3151FFF2210C068002803D0DFF80800C068804701BDEB
S3151FFF2220C429FF1F04000C4080B51A4800684006EA
S3151FFF22300CD518480068800608D5174800688047E0
S3151FFF22401448006830F040001249086014480068BF
S3151FFF2250C0070CD50F480068800308D50F480068D4
S3151FFF226080470F48006850F001000D4908600D4870
S3151FFF2270006880070CD507480068800308D5074804
S3151FFF2280006880470748006850F00200054908604C
S3151FFF229001BD000000600340002AFF1F042AFF1F25
S3151FFF22A0146003403C60034080B51748006848F23E
S3151FFF22B01001084217D015480068002813D013488D
S3151FFF22C0006880471048006850F480400E49086038
S3151FFF22D00D48006850F400400B4908600C484FF644
S3151FFF22E0FF7101600DE00A480068002809D0074802
S3151FFF22F04068002805D005484068804704480549BF
S3151FFF2300016001BD00000000005004406C2AFF1F42
S3151FFF23100C5004400000FFFF80B51548006880473A
S3151FFF23201448006850F001001249086001BD80B5CE
S3151FFF23300F48406880471048006850F001000E495B
S3151FFF2340086001BD80B50A48806880470B48006852
S3151FFF235050F001000949086001BD80B50448C068F7
S3151FFF236080470748006850F001000549086001BD16
S3151FFF2370082AFF1F0C7103401C7103402C71034079
S3151FFF23803C71034080B516480068C00709D513483E
S3151FFF2390006880471248006850F001001049086026
S3151FFF23A01AE00F480068800709D50C484068804728
S3151FFF23B00B48006850F00200094908600CE0084806
S3151FFF23C00068400708D505488068804704480068AD
S3151FFF23D050F004000249086001BD0000182AFF1FC4
S3151FFF23E014D0034070B4104C24680F4D2D6855F45C
S3151FFF23F07F050D4E3560090611F0706151EA0070B9
S3151FFF2400110511F470010843190411F470210843D3
S3151FFF241006490860002000E0401CC0B29842FBD36B
S3151FFF24200148046070BC704700F0014044800440BF
S3151FFF24302A2A2A2A2A2A2A2A2A2A2A2A2A2A2A2AD8
S3151FFF24402A2A2A2A2A2A2A2A2A2A2A2A2A2A2A2AC8
S3151FFF24502A2A2A2A2A2A2A2A2A2A2A2A2A2A2A2AB8
S3151FFF24602A2A2A2A2A2A2A2A2A2A2A2A2A2A2A2AA8
S3151FFF24702A2A2A2A0D0A00002A2A2A2A2A2A2A2A29
S3151FFF24802A2A2A20BBF9D3DAC0ADC6D5C0BCB5C22E
S3151FFF24904B3630B5D7B2E3BFE220687474703A2F5C
S3151FFF24A02F7777772E6C706C642E636E202A2A2AFD
S3151FFF24B02A2A2A2A2A2A2A2A0D0A0000CFB5CDB38D
S3151FFF24C0C6F4B6AFCDEAB1CFA3ACC8F4D2AABDFB53
S3151FFF24D0D3C3B5F7CAD4CAE4B3F6C7EBB6A8D2E5DA
S3151FFF24E05052494E545F4F4E5F4F4646CEAA312834
S3151FFF24F06B36305F636172642E68290D0A00000018
S3151FFF2500433A5C55736572735C4368656E427579B2
S3151FFF2510756E5C4465736B746F705C4342595F4B9A
S3151FFF252036305C6C69625C4C504C445C48575C4867
S3151FFF2530575F4750494F2E6300000000B6CFD1D4D7
S3151FFF2540CAA7B0DCB7A2C9FAD3DA20257320B4FA1B
S3151FFF2550C2EBB5C4B5DA20256420D0D0A3ACC7EB38
S3151FFF2560BCECB2E9B2CECAFDA1A30A004F534B6919
S3151FFF25706E65746973B9CCBCFEBFE2B0E6B1BE3AF5
S3151FFF25802573096D61696C3A737570706F7274404C
S3151FFF25906C706C642E636E0D0A0000000D0A2A2AEA
S3151FFF25A02A2ABDF8C8EBCEB4B6A8D2E5D6D0B6CF89
S3151FFF25B02C496E74657272757074204E756D6265E7
S3151FFF25C0722025642A2A2A2A2A0D0A0010B50749CE
S3151FFF25D079441831064C7C44163404E00A68081DFA
S3151FFF25E0511888470146A142F8D110BD740000005B
S3151FFF25F080000000CFB5CDB3C4DABACBCAB1D6D3EC
S3151FFF26003A25644D487A09D7DCCFDFCAB1D6D33A0C
S3151FFF261025644D487A0D0A00466C6578427573CA64
S3151FFF2620B1D6D33A25644D487A09466C617368CA99
S3151FFF2630B1D6D33A25644D487A0D0A0080B50748AF
S3151FFF26400068804701BD80B504484068804701BDCB
S3151FFF265080B502488068804701BD0000D429FF1F4F
S3151FFF2660C3F2FFFFD8020000E427FF1F0000000090
S3151FFF26700D0A2A2A2A2AC4DABACBB7A2C9FAD3B2B3
S3151FFF2680BCFEB4EDCEF32A2A2A2A2A0D0A00000021
S3151FFF269080B50548006850F080000349086003486D
S3151FFF26A00068804701BD000000000440FC29FF1F92
S3151FFF26B000F00BF8002801D0FFF788FF0020C04667
S3151FFF26C0C046FFF753FC00F002F80120704700F0E9
S3151FFF26D001B800000746384600F002F8FBE7000086
S3151FFF26E080B5C046C046024A11001820ABBEFBE7A5
S3151FFF26F026000200232323232323232323232323EA
S3151FFF270023232323232323232300000080B50448E9
S3151FFF27100068804701BD80B501484068804701BDFD
S3151FFF2720E427FF1F544A5520496E74656C6C696711
S3151FFF2730656E74204361720080B5010049B202487D
S3151FFF2740FDF7FBFF01BD000000B00E40FFFFFFFFBF
S3151FFF2750FFFFFFFFFFFFFFFFFFFFFFFF00E1F50586
S3151FFF276080B502480068804701BD0000A42AFF1FED
S3151FFF2770C046C046C046C046FFF79AFF332E3033CA
S3091FFF27800000000031
S7051FFF277144
