S01C00004C504C445F446D6150646241444378345F4B36302E73726563D1
S11300008818FF1F1104000021040000EB5F0000AA
S1130010210400002104000021040000000000006D
S113002000000000000000000000000021040000A7
S1130030210400000000000021040000210400004D
S1130040B9620000CF620000E5620000FB620000BC
S113005011630000276300003D6300005363000048
S1130060696300007F63000095630000AB630000D8
S1130070C1630000D7630000ED6300000364000067
S113008021040000210400002104000021040000D8
S113009021040000210400002104000021040000C8
S11300A065670000BF670000C95A0000735B000069
S11300B01D5C0000335E00003B5E0000435E0000F8
S11300C0515E00005B5E0000655E0000675E00003C
S11300D0695E00006B5E0000735E00007B5E0000E2
S11300E0895E0000935E0000BD5E0000BF5E0000FC
S11300F0C15E0000F3450000210400002346000017
S1130100210400005346000021040000834600003F
S113011021040000B346000021040000E34600006F
S113012021040000694C0000734C0000210400000D
S113013021040000210400002D380000373800009D
S11301404138000021040000F16C000000000000B0
S11301501F510000355100004B5100006151000057
S1130160896B00002104000021040000556B00008D
S11301702F6B0000096B00006B6B00002104000072
S11301802104000071660000DB660000816C000041
S113019021040000E56F000021040000E11A0000C2
S11301A0F31A0000051B0000171B0000291B0000A8
S11301B021040000210400002104000021040000A7
S11301C02104000021040000210400002104000097
S11301D02104000021040000210400002104000087
S11301E0F55F0000F55F0000F55F0000F55F0000BB
S11304100148804701480047C55E00003164000080
S113042005F0E8BD10B4002302E0401C491C521E34
S1130430002A04D003780C781B1B002BF5D018007D
S113044010BC704780B5DFF80C1991F8241000290E
S113045020D0C0B2002803D002208DF8000002E0B2
S113046000208DF8000000AB0122DFF8E8080068E6
S1130470417CDFF8E0084068007801F067F9002863
S113048002D05FF0FF3038E0DFF8C8089DF80010B4
S1130490417431E0DFF8BC18897A002902D15FF099
S11304A0FF302AE0C0B2002806D0DFF8A818497C43
S11304B0002901D0002020E0C0B2002803D0012090
S11304C08DF8000002E000208DF8000000AB01224E
S11304D0DFF880080068417CDFF87808406800781D
S11304E001F034F9002802D05FF0FF3005E0DFF8B6
S11304F064089DF800104174002002BD00B583B06B
S113050000A80021002206C0083880208DF80000D1
S113051000AB0122DFF83C080068417DDFF83408B5
S11305204068007801F012F9002802D05FF0FF3033
S1130530F0E0642000F046FF00208DF8000000ABDE
S11305400122DFF810080068417DDFF808084068E0
S1130550007801F0FBF8002802D05FF0FF30D9E00A
S113056000AB0622DFF8EC070068417EDFF8E40701
S11305704068007801F01AF9002802D05FF0FF30DB
S1130580C8E09DF8050010F001009DF8031011F07B
S11305900101490051EA80009DF8011011F00101A8
S11305A00843C0B2002812D0C0B2012804D1DFF839
S11305B0A4070121C17431E0C0B2022804D1DFF8DC
S11305C094070021C17429E05FF0FF30A2E000AB82
S11305D00122DFF880070068C178DFF878074068F7
S11305E0007801F0E3F8002802D05FF0FF3091E0DA
S11305F09DF8000010F00F00C0B2002802D15FF097
S1130600FF3087E0C0B2042804D1DFF84807012195
S1130610C17403E0DFF83C070021C174DFF834073C
S1130620FF218172DFF82C07FF210172DFF8240714
S1130630FF214172DFF81C07FF21C172DFF81407A4
S11306404FF6FF71C181DFF80C07FF210174DFF859
S11306500407FF218174DFF8FC0601210173DFF830
S1130660F406012180F82210DFF8E806002180F862
S11306702310DFF8E00600214175DFF8D8060021D9
S113068001750C220021DFF84C0801F008F9DFF8AD
S1130690C406002180F82410DFF8B806002180F891
S11306A02510DFF8B0060021C1844FF4FA6000F091
S11306B0E5F9002802D05FF0FF302BE0022000F0C3
S11306C04DFA002802D05FF0FF3023E02A2000F02A
S11306D08FFA002802D05FF0FF301BE0322000F0D8
S11306E0E1FA002802D05FF0FF3013E0002000F0B0
S11306F033FB002802D05FF0FF300BE0002000F055
S1130700EDFB002802D05FF0FF3003E0002000F092
S11307106AFB00200EBD10B582B00400E4B2292C9F
S113072002DB5FF0FF3074E0E4B2002C1FD1002044
S113073000F09FFC00208DF8000007208DF80100D8
S113074000AB0222DFF80C060068417DDFF80406E6
S11307504068007800F0FAFF002802D05FF0FF3014
S113076057E0DFF8F00500210175002051E0012079
S113077000F07FFC20208DF80000E4B2012C06D1AB
S113078000208DF80100052000F032FA19E0E4B2EF
S1130790062C06DA01208DF80100052000F028FA65
S11307A00FE0E4B2152C06DA02208DF801000A20CD
S11307B000F01EFA05E003208DF80100142000F07B
S11307C017FA9DF80100800150F007008DF8010030
S11307D000AB0222DFF87C050068417DDFF8740578
S11307E04068007800F0B2FF002802D05FF0FF30CC
S11307F00FE0DFF8600508218172DFF85805002159
S11308000173DFF8500501210175002000F0A4FAFE
S1130810002016BD80B5DFF8C006807A002802D11A
S11308205FF0FF300BE100208DF8000000AB0122E7
S1130830DFF8A4060068417CDFF89C064068007875
S113084000F084FF002802D05FF0FF30F7E000AB37
S11308500122DFF8840600684179DFF87C064068ED
S1130860007800F073FF002802D05FF0FF30E6E06C
S113087000AB0122DFF8600600680179DFF8580652
S11308804068007800F062FF002802D05FF0FF307B
S1130890D5E0DFF8440690F82400002866D00C2048
S11308A08DF8000000AB0122DFF82C060068017906
S11308B0DFF824064068007800F048FF002802D0E2
S11308C05FF0FF30BBE0322000F07CFDC0208DF8EB
S11308D00000DFF80406807AC00705D59DF8000003
S11308E050F020008DF8000000AB0122DFF8E8058D
S11308F000680179DFF8E0054068007800F026FF21
S1130900002802D05FF0FF3099E0DFF8CC05407C8E
S1130910002803D002208DF8000002E000208DF8AA
S1130920000000AB0122DFF8B0050068417CDFF86D
S1130930A8054068007800F009FF002802D05FF0A5
S1130940FF307CE000208DF8000000AB0122DFF8CE
S1130950880500684179DFF880054068007800F078
S1130960F5FE00286AD05FF0FF3068E004208DF8BF
S1130970000000AB0122DFF8600500680179DFF8B0
S113098058054068007800F0E1FE002802D05FF0CE
S1130990FF3054E0DFF84005807C002804D1DFF804
S11309A03805807AC00703D440208DF8000002E0A7
S11309B060208DF8000000AB0122DFF81C05006800
S11309C00179DFF814054068007800F0BFFE0028C4
S11309D002D05FF0FF3032E0322000F0F3FCDFF8A9
S11309E0F804407C002803D001208DF8000002E0C8
S11309F000208DF8000000AB0122DFF8DC04006861
S1130A00417CDFF8D4044068007800F09FFE0028A1
S1130A1002D05FF0FF3012E0DFF8E0360122DFF8A9
S1130A20B80400684179DFF8B0044068007800F049
S1130A308DFE002802D05FF0FF3000E0002002BDF0
S1130A40DFF89414097A002905D002290AD005D3C5
S1130A5003290BD00EE0FA2101800DE04FF4FA7166
S1130A60018009E04FF47A71018005E04FF4FA61E6
S1130A70018001E0002101800020704780B5DFF88B
S1130A805814897A002902D15FF0FF3042E080B225
S1130A90FA2809D0B0F5FA7F14D0B0F57A7F15D0D2
S1130AA0B0F5FA6F16D019E000208DF80000DFF8D9
S1130AB02804007A9DF80010C9B2C908884210D1F0
S1130AC0002027E008208DF80000F0E710208DF8C2
S1130AD00000ECE718208DF80000E8E75FF0FF3035
S1130AE018E000AB0122DFF8F00300688179DFF839
S1130AF0E8034068007800F029FE002802D05FF087
S1130B00FF3007E0DFF8D0039DF80010C9B2C90830
S1130B100172002002BDDFF8C013497A002905D014
S1130B20022912D00ED3032912D014E0022101703D
S1130B30DFF8A413C97C002902D0017849000170B0
S1130B400020704704210170F2E708210170EFE7EB
S1130B5010210170ECE75FF0FF30F2E780B5DFF8B9
S1130B607813897A002902D15FF0FF303FE0C0B2E8
S1130B70022806D0042812D0082814D0102816D031
S1130B8019E000208DF80000DFF84C03407A9DF84E
S1130B900010C9B2C908884210D1002027E00820FB
S1130BA08DF80000F0E710208DF80000ECE7182025
S1130BB08DF80000E8E75FF0FF3018E000AB012299
S1130BC0DFF814030068C179DFF80C03406800788B
S1130BD000F0BCFD002802D05FF0FF3007E0DFF832
S1130BE0F8029DF80010C9B2C9084172002002BD84
S1130BF080B55849897A002902D15FF0FF3041E07D
S1130C0080B2BC2803DB01208DF800001EE080B216
S1130C10622803DB02208DF8000017E080B22A2846
S1130C2003DB03208DF8000010E080B2142803DBFE
S1130C3004208DF8000009E080B20A2803DB0520B7
S1130C408DF8000002E006208DF800004148C07ACB
S1130C509DF80010884201D1002013E000AB01226E
S1130C603C48006881783B484068007800F06EFD9D
S1130C70002802D05FF0FF3004E036489DF80010F1
S1130C80C172002002BDDFF8501291F8241000292F
S1130C9002D05FF0FF3004E0DFF83C12C989018024
S1130CA00020704710B582B004002A48807A0028DA
S1130CB002D15FF0FF304CE0264890F82400002871
S1130CC002D05FF0FF3044E02248007D00280ED0BF
S1130CD0A4B2002C08D0A4B2292C05DA2000C0B29A
S1130CE0FFF719FD002034E00020FFF714FDA4B243
S1130CF0042C01DA042405E0A4B2B4F57A7F01DD02
S1130D004FF47A744FF47A70A4B290FBF4F0401E5E
S1130D108DF8000000AB01220E48006841780D48B0
S1130D204068007800F012FD002802D05FF0FF3028
S1130D300FE04FF47A709DF80010491C90FBF1F01D
S1130D400449C8810348C08980B24008FFF750FFB6
S1130D50002016BD2C04FF1F70B50400002614F0FB
S1130D60FE04DFF8740190F82400002801D000206C
S1130D7038E0DFF86401807A002802D15FF0FF30A8
S1130D8030E0DFF85401057CDFF84C01807A204024
S1130D90DFF844110874DFF84001007CE4B2A0429B
S1130DA002D05FF0FF3600E00026E4B2002C04D14C
S1130DB0DFF82401007D002803D00120FFF742FB67
S1130DC002E00020FFF73EFBE4B2002C09D0FFF75D
S1130DD021FD002805D0DFF8000105745FF0FF3025
S1130DE000E0300070BD10B582B0040070200442F1
S1130DF003D001208DF8000009E0E4B2002C03D0F8
S1130E0000208DF8000002E040208DF8000000ABC7
S1130E100122DFF8C4000068417DDFF8BC004068AF
S1130E20007800F093FC002806D0DFF8AC00002125
S1130E3081725FF0FF304CE027489DF8001011F0FC
S1130E40BF01017300208DF80000600605D49DF8F1
S1130E50000050F004008DF80000A00605D49DF8B1
S1130E60000050F002008DF80000E00605D49DF863
S1130E70000050F001008DF80000200705D49DF813
S1130E80000050F038008DF8000000AB0122124839
S1130E900068817D10484068007800F057FC002805
S1130EA005D00D48002181725FF0FF3011E0E4B2FB
S1130EB0002C05D0E4B2082C02D0002000F0D9F8B0
S1130EC005488472044800210175322000F07AFA42
S1130ED0002016BD4204FF1F2C04FF1F10B582B072
S1130EE00400DFF82804807CE4B2A04201D1002091
S1130EF0BEE0E4B2002C56D000AB0122DFF80C04B3
S1130F0000680179DFF804044068007800F04EFCC2
S1130F10002802D05FF0FF30AAE09DF8000010F036
S1130F20DF008DF8000000AB0122DFF8E003006869
S1130F300179DFF8D8034068007800F007FC002846
S1130F4002D05FF0FF3093E0032000F03BFA022070
S1130F508DF80000DFF8B40390F82200002805D0D3
S1130F609DF8000050F080008DF80000DFF89C032D
S1130F7090F82300002805D09DF8000050F03000C0
S1130F808DF8000000AB0122DFF880030068C17D0A
S1130F90DFF878034068007800F0D8FB002863D0BD
S1130FA05FF0FF3064E000AB0122DFF8600300680B
S1130FB00179DFF858034068007800F0F7FB002857
S1130FC002D05FF0FF3053E0DFF84003807AC007BF
S1130FD006D59DF8000050F020008DF8000005E0D3
S1130FE09DF8000010F0DF008DF8000000AB012236
S1130FF0DFF8180300680179DFF81003406800780F
S113100000F0A4FB002802D05FF0FF3030E00320A2
S113101000F0D8F9DFF8F40290F82200002803D099
S113102080208DF8000002E000208DF80000DFF839
S1131030DC0290F82300002805D09DF8000050F051
S113104030008DF8000000AB0122DFF8C002006818
S1131050C17DDFF8B8024068007800F077FB002813
S113106002D05FF0FF3003E0DFF8A00284740020B8
S113107016BD10B582B00400DFF8900290F823008A
S1131080E4B2A04201D1002036E0E4B2002C03D047
S113109030208DF8000002E000208DF80000DFF819
S11310A06C02807C002805D09DF8000050F00200FE
S11310B08DF80000DFF8540290F82200002805D0D3
S11310C09DF8000050F080008DF8000000AB012274
S11310D0DFF838020068C17DDFF83002406800782C
S11310E000F034FB002802D05FF0FF3004E0DFF8AA
S11310F01C0280F82340002016BD00003C04FF1FA2
S113110038B50C001500002D02D15FF0FF303FE030
S1131110DFF89012897A002902D15FF0FF3037E0BE
S113112080B2010A8DF800108DF80100DFF8740216
S1131130406840899DF80110A4B254FA81F18842B4
S113114002DA5FF0FF3023E000AB0222DFF8540242
S11311500068C17EDFF84C024068007800F0F6FABF
S1131160002802D05FF0FF3012E02B002200D2B240
S1131170DFF830020068017EDFF82802406800785A
S113118000F0E4FA002802D05FF0FF3000E0002015
S113119032BD38B50C001500002D02D15FF0FF30D0
S11311A03FE0DFF80012897A002902D15FF0FF30B6
S11311B037E080B2010A8DF800108DF80100DFF8E5
S11311C0E401406840899DF80110A4B254FA81F109
S11311D0884202DA5FF0FF3023E000AB0222DFF83E
S11311E0C4010068C17EDFF8BC014068007800F0EB
S11311F0ADFA002802D05FF0FF3012E02B0022008D
S1131200D2B2DFF8A0010068017EDFF898014068DF
S1131210007800F0CBFA002802D05FF0FF3000E045
S1131220002032BD2DE9F04385B006000F00140004
S11312301D00DFF8700190F82500002802D05FF04F
S1131240FF3060E0002F02D15FF0FF305BE05FF021
S1131250000801E019EB08081FFA88F8B6B2B04597
S113126035D2B6B21FFA88F8B6EB0800112802DBB3
S11312705FF0100901E0B6EB08091FFA88F818EBD3
S11312800702494689B2404680B2FFF739FF002879
S113129002D05FF0FF3036E001AA494689B24046E9
S11312A080B2FFF776FF002802D05FF0FF302AE01B
S11312B01FFA89F94A4601A91FFA88F818EB0700B2
S11312C0FFF7B0F80028C5D07FF001001BE0A4B2FE
S11312D0200A8DF800008DF8014000AB022231484D
S11312E00068417F2F484068007800F02FFA0028FA
S11312F002D05FF0FF3006E02A48012180F8251073
S11313002848C584002005B0BDE8F0832C04FF1FE5
S113131080B5244991F82410C0B2814201D1002043
S11313203FE0C0B2002826D01E4890F825000028CF
S113133002D15FF0FF3034E00020FFF783F8002093
S1131340FFF7CCFD1748C08CFFF7ACFC00208DF8EC
S1131350000000AB0122232112484068007800F00D
S1131360F5F91048012180F824100120FFF76AF8EC
S1131370FFF750FA14E00020FFF764F80948007CF6
S11313808DF8000000AB0122232106484068007854
S113139000F0DCF90348002180F82410FFF73AFA42
S11313A0002002BD2C04FF1F002800D101200021D1
S11313B003E0521C0D2AFCDB491C814201D20022AD
S11313C0F8E77047002800D10120002105E0521CF5
S11313D042F260239A42FADB491C814201D2002284
S11313E0F6E7704780B5DFF84804DFF84814016079
S11313F0DFF83C0408214160DFF834040121017363
S1131400DFF82C0400218160DFF8241484B06846DE
S1131410142200F053FA0FBC00F097FADFF810041E
S1131420DFF810140160DFF8080404214160DFF8DC
S1131430000401210173DFF8F80300218160DFF863
S1131440F01384B06846142200F038FA0FBC00F0A0
S11314507CFA01BD80B5DFF8D803DFF8D81301604A
S1131460DFF8CC0308214160DFF8C40301210173D4
S1131470DFF8BC0300218160DFF8B41384B0684650
S1131480142200F01BFA0FBC00F05FFA01220321C2
S1131490DFF8A00300F013FB0120FFF785FF012212
S11314A00221DFF8900300F00AFB0520FFF77CFF20
S11314B000220321DFF87C0300F001FB0520FFF785
S11314C073FF00220221DFF86C0300F0F8FA022017
S11314D0FFF76AFF01BD80B5DFF85403DFF854134A
S11314E00160DFF84C0308214160DFF84403012167
S11314F00173DFF83C0300218160DFF8341384B00A
S11315006846142200F0DAF90FBC00F01EFA00223B
S11315100321DFF8200300F0D2FA0120FFF744FF93
S113152001220221DFF80C0300F0C9FA0520FFF7BD
S11315303BFF01220321DFF8FC0200F0C0FA042083
S1131540FFF732FF01BD10B582B00400DFF8E002FE
S1131550DFF8E0120160DFF8D80208214160DFF80B
S1131560D00201210173DFF8C80200218160DFF895
S1131570C01284B06846142200F0A0F90FBC00F039
S1131580E4F9E4B2002C06D100220321DFF8A4021E
S113159000F095FA05E001220321DFF8980200F03B
S11315A08EFA0320FFF700FF01220221DFF88402F4
S11315B000F085FA0520FFF7F7FE00220221DFF88C
S11315C0740200F07CFA0220FFF7EEFE13BD38B57A
S11315D00400DFF85C02DFF85C120160DFF85002FF
S11315E008214160924801210173914800218160E2
S11315F08F4984B06846142200F060F90FBC00F0F3
S1131600A4F9002515E0002203218A4800F057FAC6
S11316100120FFF7C9FE01220221864800F04FFA9B
S11316200520FFF7C1FE00220221824800F047FA9C
S11316306D1CEDB2082D0ADAE4B214FA05F00006C6
S1131640E1D5012203217B4800F039FAE0E70220CA
S1131650FFF7AAFE76487749016075480821416082
S1131660734800210173724800218160704984B07D
S11316706846142200F022F90FBC00F066F902203B
S1131680FFF792FE012202216A4800F018FA0320B3
S1131690FFF78AFE68480068C0F3C000002803D042
S11316A066480021017002E06448012101700022B3
S11316B00221604800F003FA0220FFF775FE31BDF5
S11316C038B500245A485B490160594808214160F3
S11316D0574800210173564800218160544984B061
S11316E06846142200F0EAF80FBC00F02EF9002539
S11316F01EE00120FFF758FE002202214D4800F0B1
S1131700DEF90520FFF750FE01220221494800F0CE
S1131710D6F90320FFF748FE640047480068C0F389
S1131720C000002800D0641C0220FFF73DFE6D1CA1
S1131730EDB2082DDDDB002202213E4800F0BFF9A6
S11317400220FFF731FE2000C0B232BDF8B506001A
S11317500F0014001D00FFF77DFE7000C0B2FFF7FC
S113176036FF36480078002801D101201DE03800FA
S1131770C0B2FFF72CFF31480078002801D10120C6
S113178013E0002601E06D1C761CF6B2E4B2A6421A
S113179008D22878FFF71BFF284800780028F2D1E8
S11317A0012002E0FFF797FE0020F2BDF8B5060025
S11317B00F0014001D00FFF74DFE7000C0B2FFF7CC
S11317C006FF1E480078002801D101202FE03800D0
S11317D0C0B2FFF7FCFE19480078002801D10120AF
S11317E025E0FFF737FEF6B27000401CC0B2FFF7E9
S11317F0EEFE12480078002801D1012017E00026EF
S113180007E0FFF75DFF28700020FFF79CFE6D1CCA
S1131810761CF6B2E4B2601E8642F2DBFFF750FF9C
S113182028700120FFF78FFEFFF755FE0020F2BD60
S1131830A407FF1F40F00F4050F00F408208FF1F25
S11318400021002802D1002007E0491C0200501C9E
S113185092F90020002AF8D10800704730B404003F
S11318600D00002819D0002917D0002A15D012F035
S11318700303D11A890803E02A6822602D1D241D60
S11318800A00511E002AF7D103E0297821706D1C4B
S1131890641C19004B1E0029F7D130BC704710B4EA
S11318A00300002808D0002A02D105E019705B1C4F
S11318B01400621E002CF9D110BC7047103A07D3F3
S11318C030B4B1E83810103AA0E83810F9D230BC7E
S11318D0530724BFB1E80810A0E8081044BF51F82A
S11318E0043B40F8043BD20724BF31F8022B20F814
S11318F0022B44BF0B7803707047083A07D3B1E852
S11319000810083A40F8043B40F804CBF7D25307D8
S1131910E4E750F8041B61B150F8042BD30744BF2B
S1131920A9F101039A18002342F8043B091FFAD1D4
S1131930EFE7704740B24109804A012310F01F00CD
S113194013FA00F042F8210070470FB42DE9F84370
S11319500A9850F48074089F099D9DF82C809DF886
S11319602D900C9E7648874203D33521754800F0AC
S11319700BF95FFA88F8B8F1020F03DB36217148DE
S113198000F002F95FFA89F9B9F1020F03DB37219C
S11319906C4800F0F9F86C48874210D16B4900207C
S11319A05FFA88F8B8F1010F25D17A692A437A6180
S11319B05FFA89F9B9F1010F1BD17D601EE064481B
S11319C0874202D163490120EAE76348874202D192
S11319D062490220E4E76248874202D16149032058
S11319E0DEE76148874202D160490420D8E700203D
S11319F019E0BD6002E07A69AA437A61002207E037
S1131A0035FA02F3DB0702D5D2B241F82240521C68
S1131A10D2B2202AF4DB3100002903D0C0B25449E9
S1131A2041F820600120BDE8F2035DF814FB10B416
S1131A30C0B2420910F01F00D2B2930103F18043F7
S1131A4013F57F23D2B2120302F1804212F59222DF
S1131A501433C0B2840014EB431313F18443C9B2AA
S1131A601960C0B24FF4807142F8201010BC704766
S1131A700FB410B5029C3248844203D3A1213148EB
S1131A8000F082F83048844201D100200FE0304851
S1131A90844201D101200AE02F48844201D102206E
S1131AA005E02F48844201D1032000E00420573090
S1131AB040B2FFF73FFF012010BC5DF814FB10B4E7
S1131AC0036801248C40A343D2B212FA01F11943F2
S1131AD0016010BC70470069C84010F001007047F5
S1131AE080B523480068804722485FF0FF310160D9
S1131AF001BD80B51E48406880471F485FF0FF3134
S1131B00016001BD80B51A48806880471B485FF0BA
S1131B10FF31016001BD80B51548C0688047184891
S1131B205FF0FF31016001BD80B511480069804755
S1131B3014485FF0FF31016001BD000000E100E0E6
S1131B4001F10F40F869000000F00F4000900440DC
S1131B5040F00F4000A0044080F00F4000B004406B
S1131B60C0F00F4000C0044000F10F4000D004401A
S1131B70E006FF1FA0900440A0A00440A0B00440D1
S1131B80A0C00440A0D0044080B50A00010002486F
S1131B9000F050FAFEE700BF6C6E000010B50C00B8
S1131BA01168012902D0022904D009E040B2516829
S1131BB0884705E0916808709068401C9060FFE7D2
S1131BC02068401C206010BD30B41C000023002598
S1131BD00570401C002A19D0096800290AD1302157
S1131BE001705B1C180030BC704730351100057063
S1131BF0401C5B1C0029F5D091FBF4F204FB121588
S1131C00002DF2D5E94311F13105EFE70968002908
S1131C1008D1302101705B1CE4E7373511000570F1
S1131C20401C5B1C0029DDD0B1FBF4F204FB12154F
S1131C300A2DF2D23035F1E7F8B504000D00160094
S1131C401F0005E03A0031003020FFF7A7FF641CB5
S1131C50AC42F7DBF1BDF8B504000D0016001F001F
S1131C6005E03A0031002020FFF798FF641CAC42E5
S1131C70F7DBF1BD2DE9F04F8DB005001600002013
S1131C8000900C0005E02A0000A91800FFF786FF69
S1131C90641C94F90030002B00F0C881252B12D06D
S1131CA00A2B05D02A0000A91800FFF777FF09E0E6
S1131CB02A0000A90D20FFF771FF2A0000A90A20BD
S1131CC0FFF76CFFE4E70027002101E057F001076C
S1131CD000291CD1641C94F9000020280BD023286F
S1131CE00FD02B2804D02D28F0D0302806D00BE0BC
S1131CF057F00207ECE757F00407E9E757F0080745
S1131D00E6E757F01007E3E7641E0121E0E75FF020
S1131D100008002104E00A2000FB0830B0F130087C
S1131D20002909D1641C94F90030180030380928BE
S1131D30F1D9641E0121F3E7641C94F900002E28F4
S1131D400CD10021FFE7002909D1641C94F900009B
S1131D5030380928F7D9641E0121F4E7641E641C95
S1131D6094F900004C2806D0682802D06C2801D0D1
S1131D7002E002E001E000E0641E641C94F900301B
S1131D801800582874D0622800F0D080632800F02E
S1131D901881642813D0692811D06E2800F041817D
S1131DA06F2800F0B880702800F0CB80732800F012
S1131DB01081752800F0D080782859D063E7306806
S1131DC00390361D0A23012203A904A8FFF7FCFE91
S1131DD0824604A81AEB00090398002804D52D2094
S1131DE002901AF1010A0FE0B80704D52B200290E3
S1131DF01AF1010A08E0780704D5202002901AF1AC
S1131E00010A01E0002002905FF0000B380711D5B1
S1131E100298002804D02A0000A90298FFF7BEFE09
S1131E205FF0010B2B0000AA41465046FFF704FF68
S1131E30C24611E0F8070FD42B0000AA41465046D1
S1131E40FFF709FF0298002804D02A0000A902988D
S1131E50FFF7A4FE5FF0010BBBF1000F07D102985E
S1131E60002804D02A0000A90298FFF797FE9BE0FF
S1131E7030680190361D1023002201A904A8FFF741
S1131E80A3FE824604A81AEB00095FF0000B380792
S1131E9015D5F8060BD52A0000A93020FFF77EFEE1
S1131EA02A0000A97820FFF779FE5FF0010B2B00D0
S1131EB000AA41465046FFF7BFFEC24619E0F807A4
S1131EC017D4F80601D51AF1020A2B0000AA4146DC
S1131ED05046FFF7C0FEF8060BD52A0000A93020B3
S1131EE0FFF75CFE2A0000A97820FFF757FE5FF099
S1131EF0010BF8060ED5BBF1000F0BD12A0000A987
S1131F003020FFF74BFE2A0000A97820FFF746FE99
S1131F101AF1020A48E030680190361D08230022B5
S1131F2001A904A8FFF750FE82461FE03068019023
S1131F30361D0223002201A904A8FFF745FE8246AC
S1131F4014E030680190361D1023002201A904A872
S1131F50FFF73AFE824609E030680190361D0A23F5
S1131F60002201A904A8FFF72FFE824604A81AEB59
S1131F700009380707D52B0000AA41465046FFF751
S1131F805BFEC24610E0F8070ED42B0000AA4146BF
S1131F905046FFF760FE07E02A0000A999F9000007
S1131FA0FFF7FCFDB9F1010999F900000028F3D10C
S1131FB0F80705D52B0000AA41465046FFF74BFE13
S1131FC066E696F90000361D2A0000A9FFF7E6FD33
S1131FD05EE6D6F80090361DB9F1000F20D04846D1
S1131FE0FFF72EFC8246F8070ED42B0000AA4146C8
S1131FF05046FFF730FE07E02A0000A999F90000D7
S1132000FFF7CCFD19F1010999F900000028F3D17B
S1132010F80705D52B0000AA41465046FFF71BFEE2
S113202036E63068361D0099016031E600980DB03F
S1132030BDE8F08F0EB400B584B0012100910549CC
S1132040019105AA010000A8FFF714FE04B05DF891
S113205010FB00004970000008B430B58AB00400D9
S11320600D00110003A800280AD00220009003A844
S113207002900DAA00A8FFF7FDFD0298002101704F
S113208003AA2100C9B22800C0B200F04BF90AB07B
S113209030BC5DF808FB00040821DFF804230123A9
S11320A0136000BFDFF8FC220023136000BF0DE0C3
S11320B0DFF8F42200231360DFF8E8220123136021
S11320C000BFDFF8E0220023136040000A00511E25
S11320D0D2B2002A06D00206EAD5DFF8CC220123C8
S11320E01360E9E7704700000821DFF8B4220023F9
S11320F01360DFF8B022002313600DE0DFF8A8229C
S113210000231360DFF89C220123136000BFDFF873
S113211094220023136040000A00511ED2B2002A08
S113212006D00206EAD5DFF8802201231360E9E72E
S1132130704710B50400B1F15000C0B2FFF7D4FFEE
S1132140E4B2200950F01000C0B2FFF7CDFF14F044
S11321500F0050F00100C0B2FFF7C6FF10BD70B50C
S11321600400002508E02000C0B2FFF795FF761CAC
S1132170F6B2802EF7DB6D1CEDB2082D0CDAB5F14A
S11321805000C0B2FFF7B0FF0120FFF7ADFF1020F1
S1132190FFF7AAFF0026EBE770BD38B5002407E07F
S11321A00020FFF779FF6D1CEDB2802DF8DB641C75
S11321B0E4B2082C0CDAB4F15000C0B2FFF794FF7B
S11321C00120FFF791FF1020FFF78EFF0025EBE7BA
S11321D031BD07E043F226410A00511E92B2002AA3
S11321E0FAD1401E80B20028F4D1704780B5012195
S11321F06320FFF71CFC01216220FFF718FC01217A
S11322006120FFF714FC01216020FFF710FCDFF8C8
S1132210940101210160DFF88C0100210160DFF8E5
S1132220880101210160DFF8800100210160DFF8ED
S1132230700101210160DFF8680100210160DFF80D
S11322406C0101210160DFF8640100210160DFF805
S1132250540101210160DFF85401002101600A20CA
S1132260FFF7B7FFDFF8440101210160AE20FFF75B
S11322703BFF0020FFF738FF1020FFF735FF402019
S1132280FFF732FF8120FFF72FFFCF20FFF72CFF4E
S1132290A120FFF729FFC820FFF726FFA620FFF79C
S11322A023FFA820FFF720FF3F20FFF71DFFD320C7
S11322B0FFF71AFF0020FFF717FFD520FFF714FFE1
S11322C08020FFF711FFD920FFF70EFFF120FFF761
S11322D00BFFDA20FFF708FF1220FFF705FFDB20D2
S11322E0FFF702FF4020FFF7FFFE2020FFF7FCFE70
S11322F00220FFF7F9FE8D20FFF7F6FE1420FFF70A
S1132300F3FEA420FFF7F0FEA620FFF7EDFEAF20BA
S1132310FFF7EAFE0020FFF722FF00210020FFF76D
S113232008FF01BD2DE9F84304000D001600002745
S11323305FF000085FF0000915E05FFA88F8FFB26B
S11323400620DFF86C1000FB071018F80000FFF7F8
S1132350A3FE18F101085FFA88F8B8F1060FECDB68
S1132360A41D19F101095FFA89F919F8060000287A
S113237013D05FFA89F919F80600B0F12007E4B226
S11323807F2C01DB00246D1C2900C9B22000C0B2DF
S1132390FFF7CFFE5FF00008DDE7BDE8F183000042
S11323A00018FE430C18FE430818FE430418FE43AD
S11323B0A05800000000700000000024000000028B
S11323C00003000000650054FFEF0000FA80000BDA
S11323D012820001030C30C30E8C8CE914D5400228
S11323E013710F8E3883F8833000F883258EF883B9
S11323F03000F883FFFFFFFF0FFEA9D6240004007E
S11324001A8279A10000003CFFFF000000100000C8
S113241038836FA2003E03304000000002CAE30983
S11324203E8000002000000000000000400000008A
S113243060000000000C0000000C186E0000069202
S11324400A16C0DFFFFF0256FD8CD377FFE1C49666
S1132450E0C5BEAA00000000FFFF0B2B00001657CA
S1132460000003594000000000001DFA00026C1D2A
S1132470000000003FFFDFEB003EB3B6000D227802
S113248000002F3C00000000001942B5000039A2F2
S11324900000B365D90E9FC91DCF4C343000000035
S11324A0500000003BB67AE80064000000C8000059
S11324B000000000100000001000FA921000225EDC
S11324C0000D229F0001000000320000FF460000C2
S11324D063D400001000000004D6000004CC000007
S11324E004CC000000001072000000400000000056
S11324F000000000000600020005000700000000C4
S113250000640000000000000000000500050064F5
S11325100020000000000000000000000000400057
S11325200000030000000032F8980000FF6500007E
S1132530830F0000FF9BFC0000000000000000006F
S11325400000000000000000000000000000000087
S11325500000000000000000000000000000000077
S11325600000100040000000000000060000B26AF5
S1132570000200000001FB830068000000D9FC0099
S11325807CF1FF830000000000650000006403E8A4
S113259000640028000000250000000016A00000D0
S11325A00000100000001000002F0000000001F4E3
S11325B00000100000280000FFFF4581FFFFFA72B1
S11325C00000000000000000004400050005BAC639
S11325D0004778A20000000100000000000006008F
S11325E0000000140000254D002F706D000005AEA2
S11325F0000C02D0000000000000000000000000F9
S113260000000000001B00000000000000000000AB
S1132610000000000064000000080000000000004A
S113262000000000000000000000000000000000A6
S11326300000000000000000000000000000000096
S11326400000000000000000000000000000000086
S11326500000000000000000000000000000000076
S11326600000000000000000000000000000000066
S113267000000000001B000000000000000000003B
S1132680000E000E00000AC7000400000000003223
S1132690FFFFFF9C00000B2B000000020000000164
S11326A000000064FFE500000000000000000000DE
S11326B00000000000000001000000000001000014
S11326C00000000000018000000180000001800083
S11326D0002426D3000000000000000000060010C3
S11326E00096003C00000000000000000000000014
S11326F0000000000C0A4E68CDCF770950166759C8
S1132700C619CE8200000000000000000000000096
S113271000000000000000000000000017D7840043
S1132720030000000000000000000000C7938F9D1C
S11327301E1B1C1900000000000000000000000027
S113274000000000000000000000000002031885E3
S1132750000040000000000300000003000000002F
S11327600000000040000000000000000000000025
S11327700000000000000000000000000000000055
S11327800000000000000000000000000000000045
S11327900000000000000000677DDF7E72902E556F
S11327A04CF6E68800000000000000000000000075
S11327B000000000D8DCB4B8B0D8B9ABF3F8FAB371
S11327C0B7BB8E9EAEF132F51BF1B4B8B08097F171
S11327D0A9DFDFDFAADFDFDFF2AAC5CDC7A90CC9F5
S11327E02C97F1A989264666B28999A92D557DB001
S11327F0B08AA896365676F1BAA3B4B280C0B8A807
S11328009711B28398BAA3F0240844106418B2B99B
S1132810B49883F1A329557DBAB5B1A38393F0008D
S11328202850F5B2B6AA839328547CF1B9A38293B5
S113283061BAA2DADEDFDB819AB9AEF5606870F1C5
S1132840DABAA2DFD9BAA2FAB9A38292DB31BAA268
S1132850D9BAA2F8DF85A4D0C1BBAD83C2C5C7B8BD
S1132860A2DFDFDFBAA0DFDFDFD8D8F1B8AAB38DEB
S1132870B4980D355DB2B6BAAF8C96198F9FA70E7A
S1132880161EB49AB8AA872C547CBAA4B08AB691FE
S1132890325676B28494A4C808CDD8B8B4B0F199AD
S11328A082A82D557D98A80E161EA22C547C92A4A5
S11328B0F02C5078F184A898C4CDFCD80DDBA8FC8A
S11328C02DF3D9BAA6F8DABAA6DED8BAB2B6869685
S11328D0A6D0F3C841DAA6C8F8D8B0B4B882A89292
S11328E0F52C548898F135D9F418D8F1A2D0F8F918
S11328F0A884D9C7DFF8F883C5DADF69DF83C1D8D4
S1132900F40114F1A8824EA884F311D182F5D9926E
S1132910289788F109F41C1CD884A8F3C0F9D1D9EC
S11329209782F129F40DD8F3F9F9D1D982F4C203CD
S1132930D8DEDF1AD8F1A2FAF9A88498D9C7DFF84B
S1132940F8F883C7DADF69DFF883C3D8F40114F138
S113295098A8822EA884F311D182F5D99250978831
S1132960F109F41CD884A8F3C0F8F9D1D99782F1FD
S113297049F40DD8F3F9F9D1D982F4C403D8DEDFD0
S1132980D8F1AD8898CCA809F9D98292A8F57CF140
S1132990883ACF944A6E98DB6931DAADF2DEF9D821
S11329A08795A8F221D1DAA5F9F417D9F1AE8ED022
S11329B0C0C3AE82C684C3A88595C8A588F2C0F1F9
S11329C0F4010EF18E9EA8C63E56F554F18872F4B9
S11329D00115F19845856EF58E9E0488F142985A4A
S11329E08E9E068869F4011CF1981E1108D0F50426
S11329F0F11E970202983625DBF9D985A5F3C1DAD1
S1132A0085A5F3DFD88595A8F309DAA5FAD88292CB
S1132A10A8F578F1881A849F26889821DAF41DF3A2
S1132A20D8879F39D1AFD9DFDFFBF9F40CF3D8FA9B
S1132A30D0F8DAF9F9D0DFD9F9D8F40BD8F3879FB5
S1132A4039D1AFD9DFDFF41DF3D8FAFCA869F9F95D
S1132A50AFD0DADEFAD9F88F9FA8F1CCF398DB4532
S1132A60D9AFDFD0F8D8F18F9FA8CAF38809DAAFBD
S1132A708FCBF8D8F2AD978D0CD9A5DFF9BAA6F3B0
S1132A80FAF412F2D8950DD1D9BAA6F3FADAA5F26E
S1132A90C1BAA6F3DFD8F1BAB2B68696A6D0CAF305
S1132AA049DAA6CBF8D8B0B4B8D8AD84F2C0DFF117
S1132AB08FCBC3A8B2B68696C8C1CBC3F3B0B488D3
S1132AC098A821DB718D9D71859521D9ADF2FAD835
S1132AD08597A828D9F408D8F28D29DAF405D9F213
S1132AE085A4C2F2D8A88D9401D1D9F411F2D88763
S1132AF021D8F40AD8F28498A8C801D1D9F411D8FD
S1132B00F3A4C8BBAFD0F2DEF8F8F8F8F8F8F8F898
S1132B10D8F1B8F6B5B9B08A95A3DE3CA3D9F8D8F4
S1132B205CA3D9F8D87CA3D9F8D8F8F9D1A5D9DF12
S1132B30DAFAD8B18530F7D9DED8F830ADDADED894
S1132B40F2B48C99A32D557DA083DFDFDFB591A06E
S1132B50F629D9FBD8A0FC29D9FAD8A0D051D9F8A4
S1132B60D8FC51D9F9D879D9FBD8A0D0FC79D9FAB5
S1132B70D8A1F9F9F9F9F9A0DADFDFDFD8A1F8F87B
S1132B80F8F8F8ACDEF8ADDE8393AC2C547CF1A8F5
S1132B90DFDFDFF69D2CDAA0DFD9FADB2DF8D8A829
S1132BA050DAA0D0DED9D0F8F8F8DB55F8D8A878F8
S1132BB0DAA0D0DFD9D0FAF8F8F8F8DB7DF8D89CA1
S1132BC0A88CF530DB38D9D0DEDFA0D0DEDFD8A882
S1132BD048DB58D9DFD0DEA0DFD0DED8A868DB70B0
S1132BE0D9DFDFA0DFDFD8F1A888902C547C98A827
S1132BF0D05C38D1DAF2AE8CDFF9D8B087A8C1C185
S1132C00B188A8C6F9F9DA36D8A8F9DA36D8A8F915
S1132C10DA36D8A8F9DA36D8A8F9DA36D8F78D9D95
S1132C20ADF818DAF2AEDFD8F7ADFA30D9A4DEF990
S1132C30D8F2AEDEFAF983A7D9C3C5C7F1889BA73A
S1132C407AADF7DEDFA4F8849408A797F300AEF218
S1132C509819A488C6A39488F632DFF28393DB091B
S1132C60D9F2AADFD8D8AEF8F9D1DAF3A4DEA7F105
S1132C70889B7AD8F38494AE19F9DAAAF1DFD8A83C
S1132C8081C0C3C5C7A39283F628ADDED9F8D8A303
S1132C9050ADD9F8D8A378ADD9F8D8F8F9D1A1DADC
S1132CA0DEC3C5C7D8A18194F818F2B089ACC3C5F6
S1132CB0C7F1D8B8B4B09786A8319B069907AB97EB
S1132CC028889BF00C201440B0B4B8F0A88A9A2845
S1132CD05078B79BA82951792470594469386448BD
S1132CE031F1BBAB88002C547CF0B38BB8A804281A
S1132CF05078F1B088B49726A85998BBABB38B022F
S1132D00264666B0B8F08A9CA82951798B29517956
S1132D108A2470598B2058718A4469388B394068E9
S1132D208A6448318B30496088F1AC002C547CF0C3
S1132D308CA804285078F1889726A85998AC8C025E
S1132D40264666F0899CA82951792470594469382B
S1132D50644831A98809205970AB11384069A81911
S1132D603148608CA83C415C207C00F1879819862E
S1132D70A86E767EA999882D557DD8B1B5B9A3DF03
S1132D80DFDFAED0DFAAD0DEF2ABF8F9D9B087C46A
S1132D90AAF1DFDFBBAFDFDFB9D8B1F1A3978E6053
S1132DA0DFB084F2C8F8F9D9DED89385F14AB1834B
S1132DB0A308B5839A0810B79F10D8F1B0BAAEB083
S1132DC08AC2B2B68E9EF1FBD9F41DD8F9D90CF1A2
S1132DD0D8F8F8AD61D9AEFBD8F40CF1D8F8F8AD59
S1132DE019D9AEFBDFD8F416F1D8F8AD8D61D9F45A
S1132DF0F4ACF59C9C8DDF2BBAB6AEFAF8F40BD884
S1132E00F1AED0F8AD51DAAEFAF8F1D8B9B1B6A353
S1132E10839C08B9B1839AB5AAC0FD3083B79F10CB
S1132E20B58B93F20202D1ABDADED8F1B080BAAB43
S1132E30C0C3B284C1C3D8B1B9F38BA391B609B4EA
S1132E40D9ABDEB0879CB9A3DDF1B38B8B8B8B8BB5
S1132E50B087A3A3A3A3B28BB69BF2A3A3A3A3A3FC
S1132E60A3A3A3A3A3F1B087B59AA3F39BA3A3DC65
S1132E70BAACDFB9A3A3A3A3A3A3A3A3A3A3A3A3AC
S1132E80A3A3A3A3D8D8D8BBB3B7F1AAF9DAFFD9BF
S1132E90809AAA28B48098A720B79787A86688F054
S1132EA07951F1902C870CA781976293F07171602E
S1132EB085940129517990A5F1284C6C870C9518BB
S1132EC08578A38390284C6C886CD8F3A28200F296
S1132ED010A8921980A2F2D926D8F188A84DD94811
S1132EE0D896A83980D93CD89580A839A68698D98F
S1132EF02CDA87A72CD8A8899519A980D938D8A8FD
S1132F008939A980DA3CD8A82EA83990D90CD8A838
S1132F10953198D90CD8A809D9FFD801DAFFD895EA
S1132F2039A9DA26FFD890A80D8999A8108098218C
S1132F30DA2ED88999A83180DA2ED8A886963180DD
S1132F40DA2ED8A8873180DA2ED8A88292F341806D
S1132F50F1D92ED8A882F31980F1D92ED882ACF3F6
S1132F60C0A28022F1A62EA72EA92298A829DAAC05
S1132F70DEFFD8A2F22AF1A92E8292A8F23180A60D
S1132F8096F1D900AC8C9C0C30ACDED0DEFFD88C32
S1132F909CACD010ACDE8092A2F24C82A8F1CAF2B2
S1132FA035F19688A6D900D8F1FF00000FB43EB5DC
S1132FB09DF81C000F21084204D13521DFF80C08CC
S1132FC0FEF7E2FD0698DFF80818884217D10025BD
S1132FD0DFF80008006850F08070DFF8F817086028
S1132FE09DF81C00C0072AD506A984B068461C2297
S1132FF0FEF764FC0FBC00F0B7F804004BE0069841
S1133000DFF8D417884209D10125DFF8C807006822
S113301050F00070DFF8BC170860E1E70698DFF8AD
S1133020BC17884209D10225DFF8B407006850F0C4
S11330308070DFF8AC170860D2E7002043E09DF809
S11330401C0080070AD506A984B068461C22FEF736
S113305035FC0FBC00F01BF904001CE09DF81C00BB
S113306040070AD506A984B068461C22FEF726FC50
S11330700FBC00F0B9FB04000DE09DF81C00000734
S113308009D506A984B068461C22FEF717FC0FBCBC
S113309000F0C8FB0400E4B2012C12D10C98002803
S11330A00FD0EDB2DFF83C070C9940F825109DF8DD
S11330B02C00012805D10698006850F040000699BC
S11330C008602000C0B23EBC5DF814FBF8B50400F3
S11330D00D0016001F0042F21170864204D3C12174
S11330E0DFF8E806FEF750FD3A00D2B22900C9B273
S11330F0200000F017F9002801D100201AE00698FA
S1133100C0B2242802D142F210718E1BA168009132
S11331100099491C01FB06F142F21072B1FBF2F175
S1133120EDB214EBC502C0B2D060EDB214EBC50031
S113313001610120F2BD38B5040015000A00D2B2C5
S11331400821200000F0EEF8002801D100200AE058
S11331502A00D2B20921200000F0E4F8002801D1AD
S1133160002000E0012032BD0FB42DE9F041089C9D
S1133170099D9DF828609DF82970DDF81880002CC1
S113318005D14FF42A71DFF84406FEF7FDFCFFB2C7
S1133190402F05DB40F2A921DFF83006FEF7F4FCEE
S11331A0DFF8A8060068A04201D200206BE080216D
S11331B001FB04F1B0FBF1F34FF6FF718B4261D2D6
S11331C007211A00402303FB04F3B0FBF3F34FF68B
S11331D0FF7C634536D206211A006301B0FBF3F38A
S11331E04FF6FF7C63452DD205211A002301B0FB65
S11331F0F3F34FF6FF7C634524D204211A00E30065
S1133200B0FBF3F34FF6FF7C63451BD203211A0096
S1133210A300B0FBF3F34FF6FF7C634512D2022107
S11332201A006300B0FBF3F34FF6FF7C634509D249
S113323001211A00B0FBF4F34FF6FF70834201D270
S113324000211A000020C8F800000020C8F804007B
S11332500020C8F84C00C8F80820F6B2B00110F0FD
S1133260C000FFB217F03F021043C8F86800C8F866
S11332706450C9B211F0070050F00800C8F800000B
S1133280012000E00020BDE8F0015DF814FB0FB45C
S113329070B59DF823500A9C049EEDB2082D05DB01
S11332A040F2FD21DFF82405FEF76EFCC020C6F8CD
S11332B0840000203060002070600020F064002052
S11332C0B0607FF00100C6F880000020B06730686D
S11332D0EDB215F0070151F0080108433060306881
S11332E030F0200030602000002809D0DFF8E0042E
S11332F0864209D10020C0B2DFF8E81441F820402A
S1133300012070BC5DF814FBDFF8CC04864201D1C7
S11333100120F0E7DFF8C404864201D10220EAE785
S11333200020EEE7DFF82835984240F00681C9B264
S113333000290FD002294AD02BD3042900F083801E
S113334063D3062900F0BB80C0F09B80072900F0FE
S1133350D480F0E0D2B2032A0BD1DFF8F80400687D
S113336030F4E06050F44070DFF8E81408600120A5
S11333707047D2B2412A0AD1DFF8DC04006830F485
S1133380E06050F48060DFF8D0140860EFE70020BC
S1133390EEE7D2B2042A0AD1DFF8C004006830F4A0
S11333A0E06050F44070DFF8B4140860DFE7D2B294
S11333B0422A0AD1DFF8A804006830F4E06050F42F
S11333C08060DFF89C140860F0E70020D0E7D2B2F8
S11333D0052A0AD1DFF88C04006830F4E06050F468
S11333E04070DFF880140860C1E7D2B2432A0AD1E2
S11333F0DFF87404006830F4E06050F48060DFF8B3
S113340068140860F0E70020B2E7D2B2062A0AD1B5
S1133410DFF85804006830F4E06050F44070DFF8DE
S11334204C140860A3E7D2B2442A0AD1DFF840045E
S1133430006830F4E06050F48060DFF83414086011
S1133440F0E7002094E7D2B2072A0AD1DFF8240477
S1133450006830F4E06050F44070DFF8181408603D
S113346085E7D2B2642A0AD1DFF80C04006830F48C
S1133470E06050F48060DFF800140860F0E700209A
S113348076E7D2B2002A0AD1DFF8F003006830F4FC
S1133490E06050F44070DFF8E413086067E7D2B2EC
S11334A0652A0AD1DFF8D803006830F4E06050F4EC
S11334B08060DFF8CC130860F0E7002058E7D2B250
S11334C0012A0AD1DFF8BC03006830F4E06050F44C
S11334D04070DFF8B013086049E7D2B2662A0AD117
S11334E0DFF8A403006830F4E06050F48060DFF893
S11334F098130860F0E700203AE7D2B2022A0AD112
S1133500DFF88803006830F4E06050F44070DFF8BE
S11335107C1308602BE7D2B2672A0AD1DFF8700364
S1133520006830F4E06050F48060DFF864130860F1
S1133530F0E700201CE700201AE7DFF85833984230
S113354040F0B880C9B2002907D0012931D0082938
S11335505BD0092900F083808EE0D2B2082A0AD118
S1133560DFF83403006830F4E06050F44070DFF8B2
S113357028130860FBE6D2B20C2A0AD1DFF81C0338
S1133580006830F4E06050F44070DFF81013086015
S1133590F0E7D2B2202A0AD1DFF80403006830F43D
S11335A0E06050F44070DFF8F8120860E2E70020B1
S11335B0DEE6D2B2092A0AD1DFF8E802006830F464
S11335C0E06050F44070DFF8DC120860CFE6D2B25D
S11335D00D2A0AD1DFF8D002006830F4E06050F41C
S11335E04070DFF8C4120860F0E7D2B2212A0AD191
S11335F0DFF8B802006830F4E06050F44070DFF89F
S1133600AC120860E2E70020B2E6D2B2082A0AD17E
S1133610DFF88402006830F4E06050F4C060DFF842
S113362078120860A3E6D2B20C2A08D1DFF86C0243
S1133630006850F4E060DFF864120860F2E7D2B288
S1133640202A0AD1DFF85802006830F4E06050F410
S1133650C060DFF84C120860E4E7002088E6D2B2CC
S1133660092A0BD1DFF83C02006830F4E06050F422
S1133670C060DFF830120860002079E6D2B20D2A6B
S113368008D1DFF82402006850F4E060DFF8181273
S11336900860F1E7D2B2212A0AD1DFF810020068EB
S11336A030F4E06050F4C060DFF800120860E3E733
S11336B000205DE6494B984240F08480C9B200295D
S11336C006D0012922D008293ED009295AD077E012
S11336D0D2B20A2A0AD1DFF8D801006830F4E060D7
S11336E050F44070DFF8C811086040E6D2B2322AC4
S11336F00AD1DFF8C001006830F4E06050F4407093
S1133700DFF8B0110860F0E7002031E6D2B20B2AEE
S11337100AD1DFF8A401006830F4E06050F440708E
S1133720DFF89411086022E6D2B2332A0AD1DFF816
S11337308C01006830F4E06050F44070DFF87C11D4
S11337400860F0E7002013E6D2B20A2A0AD1DFF8B3
S11337506001006830F4E06050F4C060DFF850119C
S1133760086004E6D2B2322A0AD1DFF848010068C0
S113377030F4E06050F4C060DFF838110860F0E71E
S11337800020F5E5D2B20B2A0AD1DFF82C0100683B
S113379030F4E06050F4C060DFF81C110860E6E526
S11337A0D2B2332A0AD1DFF81401006830F4E060A1
S11337B050F4C060DFF804110860F0E70020D7E59A
S11337C00020D5E50020D3E500000000706900006A
S11337D0008003403C8004400090034000800B4084
S11337E030800440D406FF1F0FB49DF812000099E6
S11337F04A6D52F001024A650022CA6400224A60FE
S11338004FF6FF728A60D1F88020C0B21043C1F82D
S11338108000D1F8800050F00100C1F88000012040
S113382004B070470FB4002004B0704780B524483A
S11338300068804701BD80B521484068804701BDCC
S113384080B51F488068804701BD00002004FF1F29
S1133850008003400C90044004B0044010900440E5
S113386008B00440149004400CB004401890044084
S113387010B004401C90044010C004400090044068
S113388014C004400490044018C00440089004404C
S11338901CC0044000900340209004403090044039
S11338A000A00440249004403490044004A0044048
S11338B02890044048A004402C9004404CA00440AC
S11338C0D406FF1F80B5C823DFF878070288DFF825
S11338D0781740F6F630FDF7A5FC02BD10B586B0AA
S11338E0040003A8DFF864170A68026002A8DFF87E
S11338F060170A68026005A8DFF858170A680260B2
S113390004A8DFF854170A680260A4B214F0030094
S113391003A9405C8DF80400C4F3C10080B203A97C
S1133920405C8DF80500C4F3811080B203A9405CAB
S11339308DF80600A4B214F0030002A9405C8DF8CF
S11339400000C4F3C10080B202A9405C8DF80100FC
S1133950C4F3811080B202A9405C8DF8020001AA70
S1133960032140F22640FDF7CBFB002802D05FF094
S1133970FF3058E000AA032140F22A40FDF7C0FBC3
S1133980002802D05FF0FF304DE0032205A901A812
S1133990FDF764FF032204A900A8FDF75FFF600799
S11339A00BD59DF8040050F001008DF804009DF83B
S11339B0000050F001008DF80000A0060BD59DF822
S11339C0050050F001008DF805009DF8010050F04D
S11339D001008DF80100E0050BD59DF8060050F0BC
S11339E001008DF806009DF8020050F001008DF8EA
S11339F0020001AA03214FF48860FDF781FB00282F
S1133A0002D05FF0FF300EE000AA032140F2314003
S1133A10FDF776FB002802D05FF0FF3003E0DFF80B
S1133A203C060481002006B010BD30B585B004000A
S1133A3002A8DFF830162CC92CC00C390C38A4B2FB
S1133A40C92C02DB5FF0FF3024E0C820A4B290FB55
S1133A50F4F0401E80B2010A8DF800108DF80100C8
S1133A6000AA022140F21620FDF74AFB002802D0EA
S1133A705FF0FF300EE002AA0C2140F6C120FDF7F2
S1133A803FFB002802D05FF0FF3003E0DFF8CC05F5
S1133A908481002005B030BD7CB5040008000721F6
S1133AA00C4203D080B2B0F5C86F02DD5FF0FF3086
S1133AB0AFE080B200F0F0FADFF8AC1500F0FCFAE9
S1133AC0050001A8FDF727F89DF80400022806D098
S1133AD004282CD008283AD0102848D057E05FF0AA
S1133AE08D40290000F066FB00F0D0FB0600DFF8F3
S1133AF07C05290000F05EFB00F0C8FBB6B2310A79
S1133B008DF800108DF8016080B2010A8DF8021062
S1133B108DF80300E00749D500AA02214FF4EA70AA
S1133B20FDF7EEFA002835D05FF0FF3071E05FF06A
S1133B308C40290000F03EFB00F0A8FB0600DFF8F3
S1133B403005290000F036FB00F0A0FBD6E75FF05B
S1133B508B40290000F02EFB00F098FB0600DFF8F4
S1133B601405290000F026FB00F090FBC6E75FF087
S1133B708A40290000F01EFB00F088FB0600DFF8F5
S1133B80F804290000F016FB00F080FBB6E75FF0B4
S1133B90FF303EE00DF1020202214FF49270FDF776
S1133BA0AFFA002802D05FF0FF3032E0A00716D54C
S1133BB000AA02214FF4EC70FDF7A2FA002802D00B
S1133BC05FF0FF3025E00DF1020202214FF4947002
S1133BD0FDF796FA002802D05FF0FF3019E0600785
S1133BE016D500AA02214FF4EE70FDF789FA0028D9
S1133BF002D05FF0FF300CE00DF1020202214FF41D
S1133C009670FDF77DFA002802D05FF0FF3000E0E7
S1133C10002076BD80B500218DF80010C10705D5C0
S1133C209DF8001051F030018DF80010810705D582
S1133C309DF8001051F00C018DF80010400705D5D7
S1133C409DF8000050F003008DF8000000AA012147
S1133C504FF4A470FDF754FA02BD80B5C0B2002839
S1133C6001D1012003E0C0B2052800DB0420401E7E
S1133C708DF8000000AA012140F24F10FDF740FA30
S1133C8002BD80B580B2052190FBF1F080B2010A3B
S1133C908DF800108DF8010000AA02214FF4EF7096
S1133CA0FDF72EFA02BD80B580B2052190FBF1F03C
S1133CB080B2010A8DF800108DF8010000AA0221DB
S1133CC04FF4ED70FDF71CFA02BD80B54FF47A7223
S1133CD090FBF2F089B2484301168DF800100114EC
S1133CE08DF8011001128DF802108DF8030000AA5E
S1133CF004214FF4AE70FDF703FA02BD80B580B223
S1133D00052190FBF1F080B2010A8DF800108DF8C6
S1133D10010000AA02214FF4AD70FDF7F1F902BDD4
S1133D2080B580B2052190FBF1F080B2010A8DF8D4
S1133D3000108DF8010000AA02214FF4AC70FDF7C9
S1133D40DFF902BD10B584B0040002208DF8000034
S1133D50CA208DF80100E3208DF8020009208DF8B7
S1133D60030000AA04216820FDF7CAF9A3208DF8F6
S1133D700000600609D5C0208DF80100C8208DF828
S1133D800200C2208DF8030008E0A3208DF8010092
S1133D90A3208DF80200A3208DF803004FF4C07017
S1133DA0044209D0C4208DF80400CC208DF805000D
S1133DB0C6208DF8060008E0A3208DF80400A32097
S1133DC08DF80500A3208DF80600A3208DF80700C8
S1133DD0A3208DF80800A3208DF8090000AA0A2169
S1133DE040F6A720FDF78CF90320044203D02020DD
S1133DF08DF8000002E0D8208DF8000000AA01210F
S1133E0040F6B620FDF77CF9A00603D5012000F0AA
S1133E10B1F802E0002000F0ADF84FF4C0700442A5
S1133E2020D0E0050CD5B2208DF800008B208DF851
S1133E300100B6208DF802009B208DF803000BE0F2
S1133E40B0208DF8000080208DF80100B4208DF89A
S1133E50020090208DF8030000AA042140F6A2205D
S1133E60FDF74EF9E00725D5F8208DF8000000AAEB
S1133E7001214FF40B60FDF743F9FA210720FFF706
S1133E800BFE0720FFF7C6FE0120FFF7E6FE6420C5
S1133E90FFF7F7FE4FF4FA70FFF705FFC821DFF8CC
S1133EA0C001FFF712FF2820FFF728FF0A20FFF7C1
S1133EB037FF08E0D8208DF8000000AA01214FF454
S1133EC00B60FDF71DF9A00703D5D9208DF800007C
S1133ED002E0D8208DF8000000AA012140F23D70D4
S1133EE0FDF70EF9600703D5012000F065F802E044
S1133EF0002000F061F8E00603D5012000F07BF813
S1133F0002E0002000F077F8DFF8500154F00801D7
S1133F104181FCF77FFCDFF84401002181736006D6
S1133F2006D5DFF83801807B801DDFF830118873F7
S1133F304FF4C070044206D0DFF82001807B801D5E
S1133F40DFF8181188731420044206D0DFF80C013E
S1133F50807B1030DFF8041188730320044206D0FC
S1133F60DFF8F800807B001DDFF8F0108873002074
S1133F7004B010BD10B586B0C0B200280DD003A89F
S1133F80DFF8F8101CC91CC00C390C3803AA09212D
S1133F904FF49760FDF7B4F80CE000A8DFF8E010E8
S1133FA01CC91CC00C390C3800AA09214FF49760B5
S1133FB0FDF7A6F806B010BD80B5C0B200280CD03D
S1133FC0C0208DF80000C2208DF80100C4208DF8B7
S1133FD00200C6208DF8030004E004228B2100A80F
S1133FE0FDF75DFC00AA042140F69820FDF788F84F
S1133FF0FCF710FC02BD80B5C0B200280CD0202014
S11340008DF8000028208DF8010030208DF8020082
S113401038208DF8030004E00422A32100A8FDF752
S11340203EFC00AA042140F69E20FDF769F8FCF747
S1134030F1FB02BD09490860002070470749486048
S11340400020704796200000B4230000AC700000EC
S1134050B0700000B4700000B8700000F407FF1FD7
S113406009E3CA02687000000000484300004046AB
S11340700000C045000040450000C04474700000CA
S113408080700000002840F10980F446404200F0AE
S113409005F850F000406047002800BF0AD0B0FA8D
S11340A080F18840D1F19D01C905020672F10042F8
S11340B041EB10207047010010B5FF2313EAD054E0
S11340C01DBF13EAD1529C429A4239E0A41ADA077E
S11340D080EA0103134042EA012142EA0020421A25
S11340E03CBF641E01EB4202090AB2FBF1FE01FB74
S11340F01E221202B2FBF1F001FB10226EF30F201C
S11341001202B2FBF1FE4EEA00207F3406DDFE2CE3
S113411024DA53EA500050EBC45010BDD4F1020429
S113412001FB1E2240F08071192C1DDC21FA04F0E1
S1134130C4F12004A140114371F10042584110BD63
S11341409C421ABF03EAD1529A420FE080EA010E60
S11341500EF00043400004D0490016D143F0FF4064
S113416010BD490008BFD343180010BD9C4205D1BF
S1134170D21AF7D001F00041484010BD4A0212BFE4
S11341800846484000F0004010BD4AB90902B1FA9F
S113419081F2914044B1A418C00140F000409EE770
S11341A0C90141F0004152420002B0FA80F4A0403B
S11341B0141B94E7FF2212EAD05C1DBF12EAD1530C
S11341C0944593422BE09C44D30780EA01021A40B1
S11341D043EA002043EA0121A1FB0030410038BF3B
S11341E040007CF17F010BDBFE294ADA5B0842EADE
S11341F0C15153EA006373F1004C51EB1020704736
S1134200D1F1080CDCF120012FDB5B0810FA01F17D
S11342100B4373F1004120FA0CF050417047944570
S11342201CBF02EAD153934280EA010202F0004229
S11342301DD0400019D0490017D05BB9634514D094
S11342400902B1FA81F39940BCEB030CC00140F0C0
S11342500040C1E70002B0FA80FC10FA0CF0B3EBA6
S11342600C0CC90141F00041B6E710007047400052
S11342700AD0490008D010F1807F94BF11F1807FEB
S113428002E042F0FF407047D04370474100090EFE
S11342907F3915D4D1F11F0114D4400007D2C001D5
S11342A040F00040C84048BF6FF000407047C00174
S11342B040F00040C8404CBF4FF0004040427047BF
S11342C00020704700424FF0004058BFC043704781
S11342D00FB4F0B50598069B9DF81C709DF81D5011
S11342E00899099A002B01D14FF41653DFF824449E
S11342F0A0423FD10024DFF820643668DFF81CC4F4
S1134300DCF800C05CF4806CDFF810E4CEF800C088
S1134310FFB2022F06D1DFF808744FF4007CC7F80F
S113432000C00FE0FFB20E2F06D1DFF8F8734FF490
S1134330407CC7F800C005E0DFF8EC734FF4407C24
S1134340C7F800C0EDB2012D05D1DFF8E0534FF4FA
S113435000772F60F4E0EDB20F2D05D1DFF8D053D4
S11343604FF440772F60EBE0DFF8C8534FF4407709
S11343702F60E5E0DFF8C043A0422CD10124DFF830
S113438098633668DFF894C3DCF800C05CF4006C12
S1134390DFF888E3CEF800C0FFB2802F06D1DFF843
S11343A09C734FF4407CC7F800C005E0DFF89073BD
S11343B04FF4407CC7F800C0EDB2812D05D1DFF881
S11343C084534FF440772F60BAE0DFF87C534FF406
S11343D040772F60B4E0DFF874432668DFF8704359
S11343E0A04213D10224DFF834532D6855F48055CC
S11343F0DFF828733D60DFF85C534FF440772F609B
S1134400DFF854534FF440772F6099E0DFF84C43C2
S1134410A0423CD10324DFF804C3DCF800C05CF400
S1134420005CDFF8F8E2CEF800C0FFB2842F06D1BA
S1134430DFF82C734FF4407CC7F800C00FE0FFB2E4
S11344402B2F06D1DFF81C734FF4407CC7F800C053
S113445005E0DFF814734FF4407CC7F800C0EDB2F8
S1134460852D05D1DFF804534FF440772F6067E0C2
S1134470EDB22A2D05D1DFF8F8524FF440772F60C2
S11344805EE0DFF8F0524FF440772F6058E0DFF839
S1134490E842A04229D10424DFF8E0C2DCF800C0DD
S11344A05CF4806CDFF8D4E2CEF800C0FFB2982F41
S11344B006D1DFF8CC724FF4407CC7F800C005E0A9
S11344C0DFF8C0724FF4407CC7F800C0EDB2992DFC
S11344D005D1DFF8B4524FF440772F6030E0DFF8B5
S11344E0AC524FF440772F602AE00524DFF8A00295
S11344F0DFF888C2DCF800C05CF4006CDFF87CE212
S1134500CEF800C0FFB2692F06D1DFF888724FF4ED
S1134510407CC7F800C005E0DFF87C724FF4407CB3
S1134520C7F800C0EDB2682D05D1DFF870524FF422
S113453040772F6004E0DFF868524FF440772F6033
S1134540C57815F0F305C570002585701D01B6FB0F
S1134550F5F5077817F0E007ADB25FEA152C1CF00B
S11345601F0C5CEA07070770457076011B01B6FB58
S1134570F3F3ADB2B3EB4513857A15F0E00713F00E
S11345801F033B4383729DF81E30012B0CD10B009B
S1134590002B09D0C37853F02003C370E4B2DFF8D2
S11345A0043243F8241003E0C17811F0DF01C17034
S11345B09DF81F1001290CD11100002909D0C178E0
S11345C051F08001C170E4B2DFF8DC1141F824201D
S11345D003E0C17811F07F01C170C17851F00C0182
S11345E0C170F0BC5DF814FB02791206FCD5C171F0
S11345F0704780B56D480078800606D56C48007811
S1134600800602D56748006880476848007800063D
S113461006D567480078000602D5634800688047DD
S113462001BD80B563480078800606D562480078ED
S1134630800602D55B48406880475E4800780006E3
S113464006D55D480078000602D557484068804783
S113465001BD80B559480078800606D558480078D1
S1134660800602D54F488068804754480078000689
S113467006D553480078000602D54B488068804729
S113468001BD80B54F480078800606D54E480078B5
S1134690800602D54348C06880474A48007800062F
S11346A006D549480078000602D53F48C0688047CF
S11346B001BD80B545480078800606D54448007899
S11346C0800602D5374800698047404800780006D4
S11346D006D53F480078000602D533480069804774
S11346E001BD80B53B480078800606D53A4800787D
S11346F0800602D52B48406980473648007800067A
S113470006D535480078000602D527484069804719
S113471001BD000000A006401C04FF1F34800440BB
S1134720089004403890044044A00440049004409D
S11347303C90044040A0044000B0064000D0044037
S113474010B0044004D004400CB004402004FF1F07
S113475000C006400CC0044008C0044000D006401D
S113476010D004402CA0044044B0044014D00440B1
S113477028A0044040B0044000A00E40288004401B
S113478060D004403CB0044064D0044038B00440DD
S113479000B00E4024C0044020D0044020C0044097
S11347A024D004407407FF1F8C07FF1F04A0064099
S11347B003A0064004B0064003B0064004C006400F
S11347C003C0064004D0064003D0064004A00E40B7
S11347D003A00E4004B00E4003B00E4040B24109A5
S11347E0DFF89824012310F01F0013FA00F042F8B8
S11347F0210070470FB42DE9F04F83B00C9C9DF855
S113480034008DF800009DF835509DF836609DF811
S113481037709DF838008DF801009DF83A809DF8B6
S113482039909DF83CA0109801909DF80000002854
S113483008D09DF80000202804D03921DFF8400476
S1134840FDF7A2F9EDB2042D04DB3A21DFF83004C0
S1134850FDF79AF9F6B2002E07D0F6B2102E04D066
S11348603B21DFF81C04FDF78FF9FFB2042F04DBB2
S11348703C21DFF80C04FDF787F99DF8010010F0E6
S11348800300042804D33D21DFF8F403FDF77CF989
S11348905FFA88F8B8F1000F09D05FFA88F8B8F128
S11348A0100F04D03E21DFF8D803FDF76DF95FFA4D
S11348B089F919F00700042804DB3F21DFF8C0035D
S11348C0FDF762F9DFF8BC03844257D15FF0000BB7
S11348D0DFF8B403006850F00060DFF8AC13086040
S11348E09DF83B00012802D1200000F06DF9F6B2DA
S11348F0EDB2A80010F00C00304350F00100A060AD
S11349005FFA88F8FFB217F0030050EA080050F08D
S11349100400E06041F23420A06145F27860E06177
S11349205FFA8AFA1AF0400050F0180020629DF8ED
S11349303D00012803D1206A50F0040020629DF854
S1134940010060625FFA89F95FEA094020655FFA55
S11349508AFA1AF001009DF8001044F8201001981A
S1134960002806D05FFA8BFBDFF82003019940F89A
S11349702B100120BDE8FE0F5DF814FBDFF81003D7
S113498084420AD15FF0010BDFF80803006850F09D
S11349900060DFF800130860A2E70020EAE702687D
S11349A032F0400202600268520952010260026859
S11349B0C9B211F01F011143016001680906FCD559
S11349C0006980B270470FB480B50298AD4988423F
S11349D008D10020393040B2FFF700FF012002BCAB
S11349E05DF814FBAA49884201D10120F2E70020B6
S11349F0F5E7C268C2F30012C9B21F2901DB002027
S1134A002CE0A04B98427AD1C9B2080000280328B0
S1134A1023D9001F23D0401E28D0401E01282CD9A2
S1134A20801E012836D9801E01283DD9801E012808
S1134A3044D9801E01284BD9801E53D0401E012822
S1134A4051D9801E012857D9001F55D0C01E0128F6
S1134A5052D9C01E01284FD94FE001207047D2B26D
S1134A60012A02D18C4800210160F6E7D2B2012A62
S1134A7002D18A4800210160EFE7D2B2012A08D1AD
S1134A80C9B2880000F1804010F59820002140F858
S1134A90041CE2E7C9B2880000F1804010F59420BC
S1134AA0002140F8201CD8E7C9B2880000F18040FA
S1134AB010F59220002140F80C1CCEE7C9B2880002
S1134AC000F1804010F59420002140F8281CC4E730
S1134AD0C9B2880000F1804010F59620002140F80A
S1134AE0381CBAE7B9E7C9B2880000F1804010F574
S1134AF09A200021C161B0E7AFE70020AEE7644B24
S1134B0098425FD1C9B20800002803281BD9001FAE
S1134B10032819D9001F01282CD9801E032833D952
S1134B20001F01283AD9801E42D0401E41D0401EA9
S1134B30022844D9401F42D0C01E01283FD9C01EBC
S1134B4001283CD93CE088E7D2B2002A09D1C9B295
S1134B50880000F1804010F59A20002140F8101CD4
S1134B6007E0C9B2880000F1804010F596200021CA
S1134B70016172E7C9B2880000F1804010F5942009
S1134B80002140F8201C68E7C9B2880000F1804089
S1134B9010F59420002140F8181C5EE7C9B2880083
S1134BA000F1804010F59420002140F8101C54E7D7
S1134BB053E7C9B23A48002240F821204DE74CE7B8
S1134BC000204BE7002049E7712181600421C16086
S1134BD041F23421816145F27861C16100210162B1
S1134BE0416A31F00B014162416A51F007014162AF
S1134BF0416A51F08001416201680906FCD5416AAD
S1134C00490601D500202EE00021C26C1100826CFF
S1134C105118426C5118026C5118C26B5118826BB6
S1134C20511889B2022291FBF2F151F4004189B288
S1134C30C1620021C26E1100826E5118426E511879
S1134C40026E5118C26D5118826D511889B2022238
S1134C5091FBF2F151F4004189B20163416A31F0F0
S1134C60800141620120704780B508480068804790
S1134C7001BD80B505484068804701BD80E100E082
S1134C80E868000000B003403C800440E404FF1FD7
S1134C9000B00B403080044008B0044004C004401D
S1134CA00090044080B5DFF84803DFF84813016042
S1134CB0DFF83C0300210171DFF834030321417163
S1134CC0DFF82C0300218171DFF824030421017231
S1134CD0DFF81C030121C172DFF8141384B06846A5
S1134CE01422FCF7EBFD0FBCFFF784FDC04984B030
S1134CF068461422FCF7E2FD0FBCFFF764FE0E21A8
S1134D00BC48FFF776FE0F21BA48FFF772FE042174
S1134D10B848FFF76EFE01BD10B586B0040001A8C7
S1134D20142100F081F9012C0FD0C0F0C080032CB5
S1134D303ED01DD3052C62D04ED3072C00F09180B9
S1134D407CD3082C00F0A080B1E0AB4801900F2088
S1134D50029000208DF811000020039001A984B076
S1134D6068461422FCF7AAFD0FBCFCF7EEFD9EE09A
S1134D70A24801904FF48070029000208DF8110039
S1134D805FF4202003909E48059001A984B06846F2
S1134D901422FCF793FD0FBCFCF7D7FD01A984B0E6
S1134DA068461422FCF78AFD0FBCFCF761FE7EE026
S1134DB0924801904FF48050029000208DF8110029
S1134DC01020039001A984B068461422FCF776FDF4
S1134DD00FBCFCF7BAFD6AE088480190802002907D
S1134DE000208DF811000320039001A984B06846C7
S1134DF01422FCF763FD0FBCFCF7A7FD57E07F48C6
S1134E0001902020029000208DF811005FF42020F2
S1134E1003907B48059001A984B068461422FCF7EE
S1134E204DFD0FBCFCF791FD01A984B06846142226
S1134E30FCF744FD0FBCFCF71BFE38E06F48019003
S1134E400820029000208DF811001020039001A981
S1134E5084B068461422FCF731FD0FBCFCF775FDE5
S1134E6025E0664801901020029000208DF8110082
S1134E701020039001A984B068461422FCF71EFD9B
S1134E800FBCFCF762FD12E05E4801905E480290A0
S1134E9000208DF810000320039001A984B0684617
S1134EA01422FCF70BFD0FBCFCF74FFDFFE706B027
S1134EB010BD80B55548022101705448012141605C
S1134EC0524853490161514984B068461422FCF7A1
S1134ED0F5FC0FBC00F0B7F84C4984B068461422C6
S1134EE0FCF7ECFC0FBC00F007F901BD80B54948A4
S1134EF04949016047484FF4165141604548302103
S1134F004172444831210172424984B068461422F6
S1134F10FCF7D4FC0FBCFFF7DBF901BD00B58BB087
S1134F203E48039004208DF8100000208DF81E00E8
S1134F3003A984B068461C22FCF7C0FC0FBCFEF732
S1134F4035F8212220213548FEF7F5F80BB000BDD5
S1134F5000B58BB03248039004208DF81000002077
S1134F608DF81E0003A984B068461C22FCF7A6FC39
S1134F700FBCFEF71BF8332232212948FEF7DBF879
S1134F800BB000BD00B58BB02648039001208DF80E
S1134F90100041F28830059003A984B068461C22B1
S1134FA0FCF78CFC0FBCFEF701F82820009064236A
S1134FB0002204211B48FEF789F82820009065236D
S1134FC0002205211748FEF781F828200090662367
S1134FD0002206211348FEF779F828200090672361
S1134FE0002207210F48FEF771F80BB000BD000046
S1134FF0CC07FF1F00B00340C0F00F4080F00F400B
S11350003168000040F00F4003000C00B807FF1F98
S1135010C5680000E007FF1F00A0064000900340A1
S113502000800B4000800340002200F0BDB8000067
S113503040B24109504A012310F01F0013FA00F056
S113504042F8210070470FB470B505984B490968C0
S11350504B4AB1FBF2F1069A484B1B68484CB3FB30
S1135060F4F35A434FF47A735A4301FB002007992F
S1135070424A1268424BB2FBF3F25143404A02FBEC
S113508001049DF81050089EEDB2042D03DB32217B
S11350903C48FCF779FD002C03D133213948FCF757
S11350A073FD3948006850F40000374908603748F8
S11350B0002101603000002809D0EDB2344840F8E6
S11350C02560EDB2334810EB051002218160EDB28A
S11350D028013049621E4250EDB22E4810EB0510F3
S11350E0806850F00100EDB22A4911EB0511886087
S11350F0012070BC5DF814FB0FB410B59DF8084096
S1135100E4B2042C03DB76211E48FCF73DFD14F1C8
S1135110440040B2FFF78CFF10BC5DF814FB80B56F
S11351201B48006880471C48006850F001001A4979
S1135130086001BD80B5164840688047174800687C
S113514050F001001549086001BD80B51048806821
S113515080471348006850F001001149086001BD00
S113516080B50B48C06880470E48006850F00100C5
S11351700C49086001BD000000E100E02004FF1FAD
S113518040420F00806A00003C80044000700340ED
S11351900807FF1F007103400C7103401C7103409A
S11351A02C7103403C71034000B500BF13009646C8
S11351B09446103928BFA0E80C50FAD85FEA417C25
S11351C028BF0CC048BF40F8042BC90728BF20F8EB
S11351D0022B48BF00F8012B00BD000030B585B09C
S11351E005000C001222002100A8FCF758FB242023
S11351F08DF800008DF80150EDB2002D02D0EDB213
S1135200012D19D1B4F9000000128DF80200208894
S11352108DF80300B4F9020000128DF804006088D0
S11352208DF80500B4F9040000128DF80600A0887A
S11352308DF80700082086E0EDB2022D3DD12068EC
S113524000168DF80200206800148DF80300206811
S113525000128DF8040020688DF8050060680016BF
S11352608DF80600606800148DF80700606800126D
S11352708DF8080060688DF80900A06800168DF8A4
S11352800A00A06800148DF80B00A06800128DF8C5
S11352900C00A0688DF80D00E06800168DF80E0073
S11352A0E06800148DF80F00E06800128DF810001B
S11352B0E0688DF81100122045E0EDB2032D07D10E
S11352C020788DF8020060788DF8030004203AE01D
S11352D0EDB2042D04D120788DF80200032032E0D1
S11352E0EDB2052D1FD1206800168DF8020020684C
S11352F000148DF80300206800128DF80400206863
S11353008DF80500606800168DF8060060680014CA
S11353108DF80700606800128DF8080060688DF849
S113532009000A200FE0EDB2062D0CD120788DF88B
S1135330020060788DF80300A0788DF80400E0780E
S11353408DF80500062005B030BD90F90010012944
S113535001DB00201EE090F90010002901D5042093
S113536018E090F90110012901DB012012E090F905
S11353700110002901D505200CE090F90210012943
S113538001DB022006E090F90200002801D5062086
S113539000E0072080B2704738B504002000FFF712
S11353A0D4FF0500E01CFFF7D0FF55EAC005A01D9F
S11353B0FFF7CBFF55EA8015280080B232BD80B5D7
S11353C08DF800008DF8011000A90320FFF706FFF7
S11353D001BD01B500A90420FFF700FF01BD284865
S11353E00121C17070471FB52648019001208DF836
S11353F00B0001A8FBF782F804007820FBF7F3FC0C
S11354007820FBF7A9FC6420FBF74CFC0DF10200AB
S1135410FBF739FC00A8FBF713FB03A8FBF77BFBA6
S11354200E2200211648FCF73AFA154803210170B0
S1135430134804218180FEF745FA04001248FFF75F
S1135440ABFF80B2FEF74AFA1048FEF7F3FD1048AE
S1135450FEF7F4FD0A4840F27311C1800848C08881
S1135460FEF770FC6420FEF7E0FA0120FBF750FF22
S113547003480121417002480121C1701FBD000091
S1135480D404FF1FDF5300001004FF1FBF530000AC
S1135490D353000010B50C00DFF83812FEF78AFE73
S11354A0DFF83412FEF708FEDFF830120860DFF888
S11354B030022100FEF77EFEDFF82812FEF7FCFD25
S11354C0DFF82412086010BDF8B504000D001600C2
S11354D01F0028008549096800F02CF984490968EF
S11354E0FEF768FE316800F099F930608148006881
S11354F08149496800F01EF97F49896800F01AF96A
S11355007E4908607D487C49C96891F0004141604A
S11355107A487949C96891F00041816077487849AF
S11355200968C1607548016871480068FEF742FE69
S11355307149096800F072F96F4908606F48416861
S11355406B480068FEF736FE6B49496800F066F95F
S1135550694948606948816865480068FEF72AFE21
S11355606549896800F05AF9634988606348C168ED
S11355705F480068FEF71EFE5F49C96800F04EF9F7
S11355805D49C8602000316800F0D4F85D490860C6
S11355905D480078FEF780FD57490968FEF70AFE6A
S11355A05A49086058480078FEF776FD52498968E0
S11355B0FEF700FE5649086053480078FEF76CFD7C
S11355C052490968FEF7F6FD5249096800F026F9C8
S11355D0514908604D4800684F490968FEF76CFD61
S11355E04E4908604A4800684B490968FEF764FD63
S11355F04B4908604548006847490968FEF75CFD67
S1135600484908604248006843490968FEF754FD68
S11356104549086045483D49096801603A480078B1
S1135620FEF73AFD34494968FEF7C4FD4049086075
S11356303A4801683D480068FEF7BCFD01002E4869
S1135640006800F077F82C4908603448016838484D
S11356500068FEF7AFFD01002748406800F06AF8D3
S1135660254948602E48016830480068FEF7A2FDCD
S113567001002148806800F05DF81F4988602848CF
S113568001682B480068FEF795FD01001A48C068C0
S113569000F050F81849C8602048016819480068AB
S11356A0FEF788FD316800F0B9F830601C480168E5
S11356B014480068FEF77EFD0C49096800F0AEF856
S11356C00A49086028000949096800F033F838607D
S11356D0F1BD00000000344300FEFF465008FF1FE8
S11356E00000FA4400FF7F475408FF1F1408FF1FFF
S11356F06404FF1F5804FF1F6804FF1F0408FF1FF2
S11357005C04FF1F1808FF1FB64000001C08FF1FA1
S11357102008FF1F6004FF1F2408FF1F2808FF1F25
S11357202C08FF1F6808FF1F6C08FF1F3008FF1FAD
S11357303408FF1F90EA010F44BF81F0004100F0DC
S113574075B800BF431A4FF000423EBF5340C01A21
S1135750C91800BFD3095FEAD05C13EB400F34BF14
S1135760B3EB410F40E07CEBD1530CD342EA01216F
S113577022D8D1EB402009D3400A28BF5FEA500168
S113578040EBCC507047401A15D04002B0FA80F27A
S1135790521C9040400A4FEA3C23B3EB026384BF9F
S11357A000EB730007E040F400001A16DB07C2F1B7
S11357B00102D04018437047182BFCDC31FA03F285
S11357C002FA03F3591A38BF42F00102D2EB402027
S11357D03CBF4000ACF1010C5FEACC5CC20572F145
S11357E000414CEB5020704713EB400F0FD24B009D
S11357F009D0ACEBD153022B03DB4902172BDDDDBF
S113580070479143401A4300D5D10020704713EBF1
S1135810410FD0D36FF000007047000090EA010FF1
S113582044BF81F00041FFF78DBF00BF421A3CBF67
S1135830801A89184FF0004CC0F3C752FF2A24D0B5
S1135840C1F3C75313B3D21AD2F1190327DD4CEABB
S113585001214CFA03F321EA0303D140C20D4CEABF
S11358600020401834BF20EA0C004CEA5000D20556
S113587053EA006373EB0C0C52EB1020420012F15C
S1135880807F38BF7047C00DC0057047490212BF02
S11358909A4200EB5120F8E7D2F11703D9D57047AB
S11358A00000000000000000002F000000000700BE
S11358B0070000147F147F1400242A7F2A12006238
S11358C064081323003649552250000005030000E4
S11358D000001C224100000041221C000014083E6C
S11358E008140008083E0808000000A06000000832
S11358F00808080800006060000000201008040286
S1135900003E5149453E0000427F40000042615143
S11359104946002141454B31001814127F100027DD
S113592045454539003C4A494930000171090503A0
S113593000364949493600064949291E00003636D1
S11359400000000056360000000814224100001434
S11359501414141400004122140800020151090611
S113596000324959513E007C1211127C007F494992
S11359704936003E41414122007F4141221C007FC3
S113598049494941007F09090901003E4149497AD1
S1135990007F0808087F0000417F4100002040414B
S11359A03F01007F08142241007F40404040007FB7
S11359B0020C027F007F0408107F003E4141413EFB
S11359C0007F09090906003E4151215E007F091943
S11359D029460046494949310001017F0101003F40
S11359E04040403F001F2040201F003F4038403FC0
S11359F00063140814630007087008070061514924
S1135A00454300007F41410000552A552A550000B6
S1135A1041417F0000040201020400404040404034
S1135A20000001020400002054545478007F4844CC
S1135A30443800384444442000384444487F003803
S1135A405454541800087E0901020018A4A4A47C2C
S1135A50007F080404780000447D400000408084F6
S1135A607D00007F102844000000417F4000007C3E
S1135A7004180478007C080404780038444444384A
S1135A8000FC242424180018242418FC007C080496
S1135A90040800485454542000043F444020003C6F
S1135AA04040207C001C2040201C003C4030403CF6
S1135AB0004428102844001CA0A0A07C0044645486
S1135AC04C4414141414141480B58248006800283B
S1135AD009D57D48006880477E48006850F0004042
S1135AE07C49086044E07B480068C00009D57648DA
S1135AF0406880477748006850F0805075490860D6
S1135B0036E074480068000109D56F488068804712
S1135B107048006850F000606E49086028E06D48E5
S1135B200068800109D568480069804769480068B1
S1135B3050F00070674908601AE066480068000386
S1135B4009D56148C06880476248006850F4002065
S1135B50604908600CE05F480068800308D55A4833
S1135B60406980475B48006850F400305949086038
S1135B7001BD80B558480068002809D5534800681D
S1135B8080475548006850F000405349086044E09D
S1135B9051480068C00009D54C48406880474E48C9
S1135BA0006850F080504C49086036E04A4800686C
S1135BB0000109D54548806880474748006850F08F
S1135BC000604549086028E043480068800109D521
S1135BD03E48006980474048006850F000703E49E4
S1135BE008601AE03C480068000309D53748C068DB
S1135BF080473948006850F40020374908600CE0B9
S1135C0035480068800308D53048406980473248E9
S1135C10006850F400303049086001BD80B52F4859
S1135C200068002809D52A48006880472B48006886
S1135C3050F000402949086044E028480068C0004A
S1135C4009D52348406880472448006850F08050B4
S1135C502249086036E021480068000109D51C4843
S1135C60806880471D48006850F000601B49086048
S1135C7028E01A480068800109D515480069804762
S1135C801648006850F00070144908601AE0134880
S1135C900068000309D50E48C06880470F480068B3
S1135CA050F400200D4908600CE00C4800688003A3
S1135CB008D50748406980470848006850F4003018
S1135CC00649086001BD00002407FF1F3C07FF1FB1
S1135CD05407FF1F2CC002402CD002402CC00A40A5
S1135CE0C9B2202906DA026B012313FA01F1114328
S1135CF0016306E0C26A0123203913FA01F111435A
S1135D00C1627047C9B2202904DA006BC84010F0A0
S1135D10010004E0C06A2039C84010F00100C0B29C
S1135D20704738B505000C002100C9B22800FFF700
S1135D30E9FF002821D02100C9B22800FFF7D0FFD5
S1135D40574885420BD1E4B2574850F82400002844
S1135D5013D0E4B2544850F8240080470DE0514871
S1135D6085420AD1E4B2514850F82400002804D0F6
S1135D70E4B24E4850F82400804731BD38B50400E1
S1135D800D002900C9B22000FFF7BCFF012812D181
S1135D904348844210D1EDB2434850F8250000280E
S1135DA004D0EDB2404850F8250080472900C9B21C
S1135DB02000FFF795FF31BD3A4884420BD1EDB284
S1135DC03A4850F825000028F0D0EDB2374850F892
S1135DD025008047EAE7EEE710B500240FE0E4B2BF
S1135DE0334810EB0410007A012807D12100C9B20E
S1135DF0E4B220012E4A8058FFF7C0FF641CE4B2CD
S1135E00102C15DAE4B22001294940580028F5D0B5
S1135E10E4B2274810EB0410007A0228DFD12100F5
S1135E20C9B2E4B22001224A8058FFF77AFFE5E7BD
S1135E3010BD80B5FFF7D0FF01BD1E4804210160ED
S1135E4070471C480068810701D51A4908607047EB
S1135E5018485FF400310160704716485FF48031E0
S1135E600160704770477047704780B5FFF7B4FF13
S1135E7001BD11480421016070470F480068810783
S1135E8001D50D49086070470B485FF4003101608B
S1135E90704709485FF480310160704700000000DA
S1135EA00040024000400A40EC05FF1F2C06FF1F83
S1135EB0EC04FF1F2040024020400A407047704716
S1135EC07047000000B587B05048006850F478501F
S1135ED04E4908604E484CF2205101804C484DF622
S1135EE0281101804B484FF4E971018000F0BEF89D
S1135EF0322000F00FF900F065F847484749096877
